{
  "_format": "hh-sol-artifact-1",
  "contractName": "MultiPoolStaking",
  "sourceName": "staking/Staking.sol",
  "abi": [
    {
      "inputs": [],
      "stateMutability": "nonpayable",
      "type": "constructor"
    },
    {
      "inputs": [],
      "name": "EnforcedPause",
      "type": "error"
    },
    {
      "inputs": [],
      "name": "ExpectedPause",
      "type": "error"
    },
    {
      "inputs": [
        {
          "internalType": "address",
          "name": "owner",
          "type": "address"
        }
      ],
      "name": "OwnableInvalidOwner",
      "type": "error"
    },
    {
      "inputs": [
        {
          "internalType": "address",
          "name": "account",
          "type": "address"
        }
      ],
      "name": "OwnableUnauthorizedAccount",
      "type": "error"
    },
    {
      "inputs": [],
      "name": "ReentrancyGuardReentrantCall",
      "type": "error"
    },
    {
      "inputs": [
        {
          "internalType": "address",
          "name": "token",
          "type": "address"
        }
      ],
      "name": "SafeERC20FailedOperation",
      "type": "error"
    },
    {
      "anonymous": false,
      "inputs": [
        {
          "indexed": true,
          "internalType": "address",
          "name": "user",
          "type": "address"
        },
        {
          "indexed": true,
          "internalType": "uint256",
          "name": "poolId",
          "type": "uint256"
        },
        {
          "indexed": false,
          "internalType": "uint256",
          "name": "amount",
          "type": "uint256"
        },
        {
          "indexed": false,
          "internalType": "uint256",
          "name": "fee",
          "type": "uint256"
        }
      ],
      "name": "EmergencyWithdraw",
      "type": "event"
    },
    {
      "anonymous": false,
      "inputs": [
        {
          "indexed": false,
          "internalType": "uint256",
          "name": "oldFee",
          "type": "uint256"
        },
        {
          "indexed": false,
          "internalType": "uint256",
          "name": "newFee",
          "type": "uint256"
        }
      ],
      "name": "EmergencyWithdrawFeeUpdated",
      "type": "event"
    },
    {
      "anonymous": false,
      "inputs": [
        {
          "indexed": true,
          "internalType": "address",
          "name": "previousOwner",
          "type": "address"
        },
        {
          "indexed": true,
          "internalType": "address",
          "name": "newOwner",
          "type": "address"
        }
      ],
      "name": "OwnershipTransferred",
      "type": "event"
    },
    {
      "anonymous": false,
      "inputs": [
        {
          "indexed": false,
          "internalType": "address",
          "name": "account",
          "type": "address"
        }
      ],
      "name": "Paused",
      "type": "event"
    },
    {
      "anonymous": false,
      "inputs": [
        {
          "indexed": true,
          "internalType": "uint256",
          "name": "poolId",
          "type": "uint256"
        },
        {
          "indexed": true,
          "internalType": "address",
          "name": "token",
          "type": "address"
        },
        {
          "indexed": false,
          "internalType": "uint256",
          "name": "maxStakeLimit",
          "type": "uint256"
        },
        {
          "indexed": false,
          "internalType": "uint256",
          "name": "rewardRate",
          "type": "uint256"
        }
      ],
      "name": "PoolAdded",
      "type": "event"
    },
    {
      "anonymous": false,
      "inputs": [
        {
          "indexed": true,
          "internalType": "uint256",
          "name": "poolId",
          "type": "uint256"
        },
        {
          "indexed": false,
          "internalType": "uint256",
          "name": "maxStakeLimit",
          "type": "uint256"
        },
        {
          "indexed": false,
          "internalType": "uint256",
          "name": "rewardRate",
          "type": "uint256"
        },
        {
          "indexed": false,
          "internalType": "bool",
          "name": "isActive",
          "type": "bool"
        }
      ],
      "name": "PoolUpdated",
      "type": "event"
    },
    {
      "anonymous": false,
      "inputs": [
        {
          "indexed": true,
          "internalType": "address",
          "name": "user",
          "type": "address"
        },
        {
          "indexed": true,
          "internalType": "uint256",
          "name": "poolId",
          "type": "uint256"
        },
        {
          "indexed": false,
          "internalType": "uint256",
          "name": "amount",
          "type": "uint256"
        }
      ],
      "name": "RewardsClaimed",
      "type": "event"
    },
    {
      "anonymous": false,
      "inputs": [
        {
          "indexed": true,
          "internalType": "address",
          "name": "user",
          "type": "address"
        },
        {
          "indexed": true,
          "internalType": "uint256",
          "name": "poolId",
          "type": "uint256"
        },
        {
          "indexed": false,
          "internalType": "uint256",
          "name": "amount",
          "type": "uint256"
        }
      ],
      "name": "Staked",
      "type": "event"
    },
    {
      "anonymous": false,
      "inputs": [
        {
          "indexed": false,
          "internalType": "address",
          "name": "account",
          "type": "address"
        }
      ],
      "name": "Unpaused",
      "type": "event"
    },
    {
      "anonymous": false,
      "inputs": [
        {
          "indexed": true,
          "internalType": "address",
          "name": "user",
          "type": "address"
        },
        {
          "indexed": true,
          "internalType": "uint256",
          "name": "poolId",
          "type": "uint256"
        },
        {
          "indexed": false,
          "internalType": "uint256",
          "name": "amount",
          "type": "uint256"
        }
      ],
      "name": "Unstaked",
      "type": "event"
    },
    {
      "inputs": [],
      "name": "MAX_FEE",
      "outputs": [
        {
          "internalType": "uint256",
          "name": "",
          "type": "uint256"
        }
      ],
      "stateMutability": "view",
      "type": "function"
    },
    {
      "inputs": [],
      "name": "PRECISION",
      "outputs": [
        {
          "internalType": "uint256",
          "name": "",
          "type": "uint256"
        }
      ],
      "stateMutability": "view",
      "type": "function"
    },
    {
      "inputs": [
        {
          "internalType": "address",
          "name": "_stakingToken",
          "type": "address"
        },
        {
          "internalType": "uint256",
          "name": "_maxStakeLimit",
          "type": "uint256"
        },
        {
          "internalType": "uint256",
          "name": "_minStakeAmount",
          "type": "uint256"
        },
        {
          "internalType": "uint256",
          "name": "_rewardRate",
          "type": "uint256"
        },
        {
          "internalType": "uint256",
          "name": "_lockPeriod",
          "type": "uint256"
        }
      ],
      "name": "addPool",
      "outputs": [],
      "stateMutability": "nonpayable",
      "type": "function"
    },
    {
      "inputs": [
        {
          "internalType": "uint256",
          "name": "_poolId",
          "type": "uint256"
        }
      ],
      "name": "claimRewards",
      "outputs": [],
      "stateMutability": "nonpayable",
      "type": "function"
    },
    {
      "inputs": [
        {
          "internalType": "uint256",
          "name": "_poolId",
          "type": "uint256"
        },
        {
          "internalType": "uint256",
          "name": "_amount",
          "type": "uint256"
        }
      ],
      "name": "collectFees",
      "outputs": [],
      "stateMutability": "nonpayable",
      "type": "function"
    },
    {
      "inputs": [
        {
          "internalType": "address",
          "name": "_token",
          "type": "address"
        },
        {
          "internalType": "uint256",
          "name": "_amount",
          "type": "uint256"
        }
      ],
      "name": "emergencyTokenRecovery",
      "outputs": [],
      "stateMutability": "nonpayable",
      "type": "function"
    },
    {
      "inputs": [
        {
          "internalType": "uint256",
          "name": "_poolId",
          "type": "uint256"
        }
      ],
      "name": "emergencyUnstake",
      "outputs": [],
      "stateMutability": "nonpayable",
      "type": "function"
    },
    {
      "inputs": [],
      "name": "emergencyWithdrawFee",
      "outputs": [
        {
          "internalType": "uint256",
          "name": "",
          "type": "uint256"
        }
      ],
      "stateMutability": "view",
      "type": "function"
    },
    {
      "inputs": [],
      "name": "getAllPools",
      "outputs": [
        {
          "components": [
            {
              "internalType": "contract IERC20",
              "name": "stakingToken",
              "type": "address"
            },
            {
              "internalType": "uint256",
              "name": "totalStaked",
              "type": "uint256"
            },
            {
              "internalType": "uint256",
              "name": "maxStakeLimit",
              "type": "uint256"
            },
            {
              "internalType": "uint256",
              "name": "minStakeAmount",
              "type": "uint256"
            },
            {
              "internalType": "uint256",
              "name": "rewardRate",
              "type": "uint256"
            },
            {
              "internalType": "uint256",
              "name": "lastUpdateTime",
              "type": "uint256"
            },
            {
              "internalType": "uint256",
              "name": "accRewardPerToken",
              "type": "uint256"
            },
            {
              "internalType": "bool",
              "name": "isActive",
              "type": "bool"
            },
            {
              "internalType": "uint256",
              "name": "lockPeriod",
              "type": "uint256"
            },
            {
              "internalType": "uint256",
              "name": "totalRewardsDistributed",
              "type": "uint256"
            }
          ],
          "internalType": "struct MultiPoolStaking.PoolInfo[]",
          "name": "",
          "type": "tuple[]"
        }
      ],
      "stateMutability": "view",
      "type": "function"
    },
    {
      "inputs": [
        {
          "internalType": "uint256",
          "name": "_poolId",
          "type": "uint256"
        }
      ],
      "name": "getPoolInfo",
      "outputs": [
        {
          "components": [
            {
              "internalType": "contract IERC20",
              "name": "stakingToken",
              "type": "address"
            },
            {
              "internalType": "uint256",
              "name": "totalStaked",
              "type": "uint256"
            },
            {
              "internalType": "uint256",
              "name": "maxStakeLimit",
              "type": "uint256"
            },
            {
              "internalType": "uint256",
              "name": "minStakeAmount",
              "type": "uint256"
            },
            {
              "internalType": "uint256",
              "name": "rewardRate",
              "type": "uint256"
            },
            {
              "internalType": "uint256",
              "name": "lastUpdateTime",
              "type": "uint256"
            },
            {
              "internalType": "uint256",
              "name": "accRewardPerToken",
              "type": "uint256"
            },
            {
              "internalType": "bool",
              "name": "isActive",
              "type": "bool"
            },
            {
              "internalType": "uint256",
              "name": "lockPeriod",
              "type": "uint256"
            },
            {
              "internalType": "uint256",
              "name": "totalRewardsDistributed",
              "type": "uint256"
            }
          ],
          "internalType": "struct MultiPoolStaking.PoolInfo",
          "name": "",
          "type": "tuple"
        }
      ],
      "stateMutability": "view",
      "type": "function"
    },
    {
      "inputs": [
        {
          "internalType": "uint256",
          "name": "_poolId",
          "type": "uint256"
        }
      ],
      "name": "getPoolUtilization",
      "outputs": [
        {
          "internalType": "uint256",
          "name": "",
          "type": "uint256"
        }
      ],
      "stateMutability": "view",
      "type": "function"
    },
    {
      "inputs": [
        {
          "internalType": "uint256",
          "name": "_poolId",
          "type": "uint256"
        },
        {
          "internalType": "address",
          "name": "_user",
          "type": "address"
        }
      ],
      "name": "getUserInfo",
      "outputs": [
        {
          "components": [
            {
              "internalType": "uint256",
              "name": "stakedAmount",
              "type": "uint256"
            },
            {
              "internalType": "uint256",
              "name": "rewardDebt",
              "type": "uint256"
            },
            {
              "internalType": "uint256",
              "name": "pendingRewards",
              "type": "uint256"
            },
            {
              "internalType": "uint256",
              "name": "lastStakeTime",
              "type": "uint256"
            },
            {
              "internalType": "uint256",
              "name": "totalRewardsClaimed",
              "type": "uint256"
            }
          ],
          "internalType": "struct MultiPoolStaking.UserInfo",
          "name": "",
          "type": "tuple"
        }
      ],
      "stateMutability": "view",
      "type": "function"
    },
    {
      "inputs": [
        {
          "internalType": "address",
          "name": "_user",
          "type": "address"
        }
      ],
      "name": "getUserStakedPools",
      "outputs": [
        {
          "internalType": "uint256[]",
          "name": "",
          "type": "uint256[]"
        }
      ],
      "stateMutability": "view",
      "type": "function"
    },
    {
      "inputs": [],
      "name": "owner",
      "outputs": [
        {
          "internalType": "address",
          "name": "",
          "type": "address"
        }
      ],
      "stateMutability": "view",
      "type": "function"
    },
    {
      "inputs": [],
      "name": "pause",
      "outputs": [],
      "stateMutability": "nonpayable",
      "type": "function"
    },
    {
      "inputs": [],
      "name": "paused",
      "outputs": [
        {
          "internalType": "bool",
          "name": "",
          "type": "bool"
        }
      ],
      "stateMutability": "view",
      "type": "function"
    },
    {
      "inputs": [
        {
          "internalType": "uint256",
          "name": "_poolId",
          "type": "uint256"
        },
        {
          "internalType": "address",
          "name": "_user",
          "type": "address"
        }
      ],
      "name": "pendingRewards",
      "outputs": [
        {
          "internalType": "uint256",
          "name": "",
          "type": "uint256"
        }
      ],
      "stateMutability": "view",
      "type": "function"
    },
    {
      "inputs": [],
      "name": "poolCount",
      "outputs": [
        {
          "internalType": "uint256",
          "name": "",
          "type": "uint256"
        }
      ],
      "stateMutability": "view",
      "type": "function"
    },
    {
      "inputs": [
        {
          "internalType": "uint256",
          "name": "",
          "type": "uint256"
        }
      ],
      "name": "pools",
      "outputs": [
        {
          "internalType": "contract IERC20",
          "name": "stakingToken",
          "type": "address"
        },
        {
          "internalType": "uint256",
          "name": "totalStaked",
          "type": "uint256"
        },
        {
          "internalType": "uint256",
          "name": "maxStakeLimit",
          "type": "uint256"
        },
        {
          "internalType": "uint256",
          "name": "minStakeAmount",
          "type": "uint256"
        },
        {
          "internalType": "uint256",
          "name": "rewardRate",
          "type": "uint256"
        },
        {
          "internalType": "uint256",
          "name": "lastUpdateTime",
          "type": "uint256"
        },
        {
          "internalType": "uint256",
          "name": "accRewardPerToken",
          "type": "uint256"
        },
        {
          "internalType": "bool",
          "name": "isActive",
          "type": "bool"
        },
        {
          "internalType": "uint256",
          "name": "lockPeriod",
          "type": "uint256"
        },
        {
          "internalType": "uint256",
          "name": "totalRewardsDistributed",
          "type": "uint256"
        }
      ],
      "stateMutability": "view",
      "type": "function"
    },
    {
      "inputs": [],
      "name": "renounceOwnership",
      "outputs": [],
      "stateMutability": "nonpayable",
      "type": "function"
    },
    {
      "inputs": [
        {
          "internalType": "uint256",
          "name": "_fee",
          "type": "uint256"
        }
      ],
      "name": "setEmergencyWithdrawFee",
      "outputs": [],
      "stateMutability": "nonpayable",
      "type": "function"
    },
    {
      "inputs": [
        {
          "internalType": "uint256",
          "name": "_poolId",
          "type": "uint256"
        },
        {
          "internalType": "uint256",
          "name": "_amount",
          "type": "uint256"
        }
      ],
      "name": "stake",
      "outputs": [],
      "stateMutability": "nonpayable",
      "type": "function"
    },
    {
      "inputs": [
        {
          "internalType": "address",
          "name": "newOwner",
          "type": "address"
        }
      ],
      "name": "transferOwnership",
      "outputs": [],
      "stateMutability": "nonpayable",
      "type": "function"
    },
    {
      "inputs": [],
      "name": "unpause",
      "outputs": [],
      "stateMutability": "nonpayable",
      "type": "function"
    },
    {
      "inputs": [
        {
          "internalType": "uint256",
          "name": "_poolId",
          "type": "uint256"
        },
        {
          "internalType": "uint256",
          "name": "_amount",
          "type": "uint256"
        }
      ],
      "name": "unstake",
      "outputs": [],
      "stateMutability": "nonpayable",
      "type": "function"
    },
    {
      "inputs": [
        {
          "internalType": "uint256",
          "name": "_poolId",
          "type": "uint256"
        },
        {
          "internalType": "uint256",
          "name": "_maxStakeLimit",
          "type": "uint256"
        },
        {
          "internalType": "uint256",
          "name": "_minStakeAmount",
          "type": "uint256"
        },
        {
          "internalType": "uint256",
          "name": "_rewardRate",
          "type": "uint256"
        },
        {
          "internalType": "uint256",
          "name": "_lockPeriod",
          "type": "uint256"
        },
        {
          "internalType": "bool",
          "name": "_isActive",
          "type": "bool"
        }
      ],
      "name": "updatePool",
      "outputs": [],
      "stateMutability": "nonpayable",
      "type": "function"
    },
    {
      "inputs": [
        {
          "internalType": "uint256",
          "name": "",
          "type": "uint256"
        },
        {
          "internalType": "address",
          "name": "",
          "type": "address"
        }
      ],
      "name": "userInfo",
      "outputs": [
        {
          "internalType": "uint256",
          "name": "stakedAmount",
          "type": "uint256"
        },
        {
          "internalType": "uint256",
          "name": "rewardDebt",
          "type": "uint256"
        },
        {
          "internalType": "uint256",
          "name": "pendingRewards",
          "type": "uint256"
        },
        {
          "internalType": "uint256",
          "name": "lastStakeTime",
          "type": "uint256"
        },
        {
          "internalType": "uint256",
          "name": "totalRewardsClaimed",
          "type": "uint256"
        }
      ],
      "stateMutability": "view",
      "type": "function"
    }
  ],
  "bytecode": "0x60806040526101f460065534801561001657600080fd5b50338061003d57604051631e4fbdf760e01b81526000600482015260240160405180910390fd5b61004681610050565b50600180556100a0565b600080546001600160a01b038381166001600160a01b0319831681178455604051919092169283917f8be0079c531659141344cd1fd0a4f28419497f9722a3daafe3b4186f6b6457e09190a35050565b61243d806100af6000396000f3fe608060405234801561001057600080fd5b50600436106101a95760003560e01c806393f1a40b116100f9578063bc063e1a11610097578063d88ff1f411610071578063d88ff1f4146104ab578063e30658f6146104c0578063f2fde38b146104e0578063f525cb68146104f357600080fd5b8063bc063e1a1461047c578063ce43f1d714610485578063d18df53c1461049857600080fd5b8063a240e37a116100d3578063a240e37a14610381578063aaf5eb6814610394578063ac4afa38146103a3578063b49b0cb31461046957600080fd5b806393f1a40b146102ed578063982e1ccb1461035b5780639e2c8a5b1461036e57600080fd5b80633f4ba83a11610166578063715018a611610140578063715018a6146102af5780637b0472f0146102b75780638456cb59146102ca5780638da5cb5b146102d257600080fd5b80633f4ba83a1461027e5780635c975abb146102865780636cae7bf71461029c57600080fd5b8063012ce501146101ae5780630962ef79146101c35780631069f3b5146101d657806329cb0090146102345780632f380b35146102475780633c1108e014610267575b600080fd5b6101c16101bc366004611f62565b6104fc565b005b6101c16101d1366004611f62565b61068c565b6101e96101e4366004611f97565b610872565b60405161022b9190600060a082019050825182526020830151602083015260408301516040830152606083015160608301526080830151608083015292915050565b60405180910390f35b6101c1610242366004611fc3565b610929565b61025a610255366004611f62565b610b56565b60405161022b9190612079565b61027060065481565b60405190815260200161022b565b6101c1610c12565b60025460ff16604051901515815260200161022b565b6101c16102aa36600461208e565b610c24565b6101c1610da5565b6101c16102c536600461208e565b610db7565b6101c1611060565b6000546040516001600160a01b03909116815260200161022b565b6103336102fb366004611f97565b600460208181526000938452604080852090915291835291208054600182015460028301546003840154939094015491939092909185565b604080519586526020860194909452928401919091526060830152608082015260a00161022b565b6101c1610369366004611f62565b611070565b6101c161037c36600461208e565b6110fe565b6101c161038f3660046120b0565b61139d565b610270670de0b6b3a764000081565b6104136103b1366004611f62565b600360208190526000918252604090912080546001820154600283015493830154600484015460058501546006860154600787015460088801546009909801546001600160a01b039097169895979596949593949293919260ff90911691908a565b604080516001600160a01b03909b168b5260208b0199909952978901969096526060880194909452608087019290925260a086015260c0850152151560e08401526101008301526101208201526101400161022b565b6101c161047736600461210a565b6114ba565b6102706103e881565b610270610493366004611f62565b61164b565b6102706104a6366004611f97565b611718565b6104b3611903565b60405161022b9190612134565b6104d36104ce366004612183565b611a30565b60405161022b91906121a5565b6101c16104ee366004612183565b611b94565b61027060055481565b610504611bcf565b61050c611bf9565b8060055481106105375760405162461bcd60e51b815260040161052e906121dd565b60405180910390fd5b60008181526003602052604090206007015460ff166105685760405162461bcd60e51b815260040161052e90612206565b60008281526004602090815260408083203384528252808320858452600390925290912081546105cd5760405162461bcd60e51b815260206004820152601060248201526f139bc81d1bdad95b9cc81cdd185ad95960821b604482015260640161052e565b8154600654600090612710906105e39084612248565b6105ed919061225f565b905060006105fb8284612281565b9050828460010160008282546106119190612281565b90915550506000808655600186018190556002860155835461063d906001600160a01b03163383611c1d565b6040805182815260208101849052889133917f2369db1bafee945aee5630782f4a170682e3f8188d8dc247a4c73eb8c9e692d2910160405180910390a350505050505061068960018055565b50565b610694611bcf565b61069c611bf9565b8060055481106106be5760405162461bcd60e51b815260040161052e906121dd565b60008181526003602052604090206007015460ff166106ef5760405162461bcd60e51b815260040161052e90612206565b60008281526004602090815260408083203384528252808320858452600390925290912061071c84611c81565b60008260010154670de0b6b3a7640000836006015485600001546107409190612248565b61074a919061225f565b6107549190612281565b905060008184600201546107689190612294565b9050600081116107b05760405162461bcd60e51b81526020600482015260136024820152724e6f207265776172647320746f20636c61696d60681b604482015260640161052e565b6000600285015560068301548454670de0b6b3a7640000916107d191612248565b6107db919061225f565b8460010181905550808460040160008282546107f79190612294565b92505081905550808360090160008282546108129190612294565b9091555050825461082d906001600160a01b03163383611c1d565b604051818152869033907fdacbdde355ba930696a362ea6738feb9f8bd52dfb3d81947558fd3217e23e3259060200160405180910390a3505050505061068960018055565b6108a46040518060a0016040528060008152602001600081526020016000815260200160008152602001600081525090565b8260055481106108c65760405162461bcd60e51b815260040161052e906122a7565b60008481526004602081815260408084206001600160a01b0388168552825292839020835160a0810185528154815260018201549281019290925260028101549382019390935260038301546060820152910154608082015291505b5092915050565b610931611d25565b6001600160a01b03851661097f5760405162461bcd60e51b8152602060048201526015602482015274496e76616c696420746f6b656e206164647265737360581b604482015260640161052e565b6000841161099f5760405162461bcd60e51b815260040161052e906122d4565b600083116109bf5760405162461bcd60e51b815260040161052e9061231a565b838311156109df5760405162461bcd60e51b815260040161052e90612361565b604051806101400160405280866001600160a01b031681526020016000815260200185815260200184815260200183815260200142815260200160008152602001600115158152602001828152602001600081525060036000600554815260200190815260200160002060008201518160000160006101000a8154816001600160a01b0302191690836001600160a01b031602179055506020820151816001015560408201518160020155606082015181600301556080820151816004015560a0820151816005015560c0820151816006015560e08201518160070160006101000a81548160ff02191690831515021790555061010082015181600801556101208201518160090155905050846001600160a01b03166005547fcf71df2ad8f5180eea605cc5f16399aa74e3a68b2f23a5da121923b71b2ec36d8685604051610b32929190918252602082015260400190565b60405180910390a360058054906000610b4a836123a9565b91905055505050505050565b610b5e611f04565b816005548110610b805760405162461bcd60e51b815260040161052e906122a7565b505060009081526003602081815260409283902083516101408101855281546001600160a01b0316815260018201549281019290925260028101549382019390935290820154606082015260048201546080820152600582015460a0820152600682015460c0820152600782015460ff16151560e0820152600882015461010082015260099091015461012082015290565b610c1a611d25565b610c22611d52565b565b610c2c611d25565b816005548110610c4e5760405162461bcd60e51b815260040161052e906122a7565b600083815260036020526040902082610ca95760405162461bcd60e51b815260206004820152601d60248201527f416d6f756e74206d7573742062652067726561746572207468616e2030000000604482015260640161052e565b80546040516370a0823160e01b81523060048201526000916001600160a01b0316906370a0823190602401602060405180830381865afa158015610cf1573d6000803e3d6000fd5b505050506040513d601f19601f82011682018060405250810190610d1591906123c2565b6001830154909150610d278582612294565b821015610d765760405162461bcd60e51b815260206004820152601860248201527f496e73756666696369656e74206665652062616c616e63650000000000000000604482015260640161052e565b610d9d610d8b6000546001600160a01b031690565b84546001600160a01b03169087611c1d565b505050505050565b610dad611d25565b610c226000611da4565b610dbf611bcf565b610dc7611bf9565b816005548110610de95760405162461bcd60e51b815260040161052e906121dd565b60008181526003602052604090206007015460ff16610e1a5760405162461bcd60e51b815260040161052e90612206565b60008211610e625760405162461bcd60e51b815260206004820152601560248201527443616e6e6f74207374616b65203020746f6b656e7360581b604482015260640161052e565b60008381526003602081815260408084206004835281852033865290925290922090820154841015610ed65760405162461bcd60e51b815260206004820152601a60248201527f416d6f756e742062656c6f77206d696e696d756d207374616b65000000000000604482015260640161052e565b8160020154848360010154610eeb9190612294565b1115610f395760405162461bcd60e51b815260206004820152601960248201527f506f6f6c207374616b65206c696d697420657863656564656400000000000000604482015260640161052e565b610f4285611c81565b805415610f9e5760008160010154670de0b6b3a764000084600601548460000154610f6d9190612248565b610f77919061225f565b610f819190612281565b905080826002016000828254610f979190612294565b9091555050505b8154610fb5906001600160a01b0316333087611df4565b83816000016000828254610fc99190612294565b909155505042600382015560068201548154670de0b6b3a764000091610fee91612248565b610ff8919061225f565b8160010181905550838260010160008282546110149190612294565b9091555050604051848152859033907f1449c6dd7851abc30abf37f57715f492010519147cc2652fbc38202c18a6ee909060200160405180910390a350505061105c60018055565b5050565b611068611d25565b610c22611e33565b611078611d25565b6103e88111156110b95760405162461bcd60e51b815260206004820152600c60248201526b08ccaca40e8dede40d0d2ced60a31b604482015260640161052e565b600680549082905560408051828152602081018490527f21a831594b1092ecbd47442f573c22bfcda4a779377879202fd33abf8fcc358a910160405180910390a15050565b611106611bcf565b61110e611bf9565b8160055481106111305760405162461bcd60e51b815260040161052e906121dd565b60008181526003602052604090206007015460ff166111615760405162461bcd60e51b815260040161052e90612206565b60008381526004602090815260408083203384528252808320868452600390925290912081548411156111d65760405162461bcd60e51b815260206004820152601a60248201527f496e73756666696369656e74207374616b656420616d6f756e74000000000000604482015260640161052e565b600084116112265760405162461bcd60e51b815260206004820152601760248201527f43616e6e6f7420756e7374616b65203020746f6b656e73000000000000000000604482015260640161052e565b8060080154826003015461123a9190612294565b4210156112895760405162461bcd60e51b815260206004820152601760248201527f546f6b656e7320617265207374696c6c206c6f636b6564000000000000000000604482015260640161052e565b61129285611c81565b60008260010154670de0b6b3a7640000836006015485600001546112b69190612248565b6112c0919061225f565b6112ca9190612281565b9050808360020160008282546112e09190612294565b90915550508254859084906000906112f9908490612281565b909155505060068201548354670de0b6b3a76400009161131891612248565b611322919061225f565b83600101819055508482600101600082825461133e9190612281565b90915550508154611359906001600160a01b03163387611c1d565b604051858152869033907f7fc4727e062e336010f2c282598ef5f14facb3de68cf8195c2f23e1454b2b74e9060200160405180910390a35050505061105c60018055565b6113a5611d25565b8560055481106113c75760405162461bcd60e51b815260040161052e906122a7565b600086116113e75760405162461bcd60e51b815260040161052e906122d4565b600085116114075760405162461bcd60e51b815260040161052e9061231a565b858511156114275760405162461bcd60e51b815260040161052e90612361565b61143087611c81565b600087815260036020818152604092839020600281018a9055918201889055600482018790556008820186905560078201805486151560ff19909116811790915583518a8152918201889052818401529151909189917f7600d4ded6fd949396310db0bf79a7d304b26859d4f81ba1066858108d7e247a9181900360600190a25050505050505050565b6114c2611d25565b6001600160a01b0382166115105760405162461bcd60e51b8152602060048201526015602482015274496e76616c696420746f6b656e206164647265737360581b604482015260640161052e565b60005b600554811015611624576000818152600360205260409020546001600160a01b0380851691160361161257600081815260036020526040908190206001015490516370a0823160e01b81523060048201526001600160a01b038516906370a0823190602401602060405180830381865afa158015611595573d6000803e3d6000fd5b505050506040513d601f19601f820116820180604052508101906115b991906123c2565b6115c39190612281565b8211156116125760405162461bcd60e51b815260206004820152601d60248201527f43616e6e6f74207769746864726177207374616b656420746f6b656e73000000604482015260640161052e565b8061161c816123a9565b915050611513565b5061105c61163a6000546001600160a01b031690565b6001600160a01b0384169083611c1d565b600081600554811061166f5760405162461bcd60e51b815260040161052e906122a7565b60008381526003602081815260409283902083516101408101855281546001600160a01b031681526001820154928101839052600282015494810185905292810154606084015260048101546080840152600581015460a0840152600681015460c0840152600781015460ff16151560e0840152600881015461010084015260090154610120830152909190611706906064612248565b611710919061225f565b949350505050565b600082600554811061173c5760405162461bcd60e51b815260040161052e906122a7565b600084815260036020818152604080842081516101408101835281546001600160a01b039081168252600180840154838701526002808501548487015284880154606080860191909152600480870154608080880191909152600588015460a080890191909152600689015460c0890152600789015460ff16151560e089015260088901546101008901526009909801546101208801528f8c52818a52888c20958f168c52948952878b20885197880189528054808952948101549988019990995291880154968601969096529686015494840194909452939094015492810192909252919290919003611837576040015192506109229050565b60c082015160a083015142118015611853575060008360200151115b156118b15760008360a001514261186a9190612281565b905060008460200151670de0b6b3a764000086608001518461188c9190612248565b6118969190612248565b6118a0919061225f565b90506118ac8184612294565b925050505b60008260200151670de0b6b3a76400008385600001516118d19190612248565b6118db919061225f565b6118e59190612281565b90508083604001516118f79190612294565b98975050505050505050565b6060600060055467ffffffffffffffff811115611922576119226123db565b60405190808252806020026020018201604052801561195b57816020015b611948611f04565b8152602001906001900390816119405790505b50905060005b600554811015611a2a5760008181526003602081815260409283902083516101408101855281546001600160a01b0316815260018201549281019290925260028101549382019390935290820154606082015260048201546080820152600582015460a0820152600682015460c0820152600782015460ff16151560e082015260088201546101008201526009909101546101208201528251839083908110611a0c57611a0c6123f1565b60200260200101819052508080611a22906123a9565b915050611961565b50919050565b6060600060055467ffffffffffffffff811115611a4f57611a4f6123db565b604051908082528060200260200182016040528015611a78578160200160208202803683370190505b5090506000805b600554811015611aef5760008181526004602090815260408083206001600160a01b038916845290915290205415611add5780838381518110611ac457611ac46123f1565b602090810291909101015281611ad9816123a9565b9250505b80611ae7816123a9565b915050611a7f565b5060008167ffffffffffffffff811115611b0b57611b0b6123db565b604051908082528060200260200182016040528015611b34578160200160208202803683370190505b50905060005b82811015611b8b57838181518110611b5457611b546123f1565b6020026020010151828281518110611b6e57611b6e6123f1565b602090810291909101015280611b83816123a9565b915050611b3a565b50949350505050565b611b9c611d25565b6001600160a01b038116611bc657604051631e4fbdf760e01b81526000600482015260240161052e565b61068981611da4565b600260015403611bf257604051633ee5aeb560e01b815260040160405180910390fd5b6002600155565b60025460ff1615610c225760405163d93c066560e01b815260040160405180910390fd5b6040516001600160a01b03838116602483015260448201839052611c7c91859182169063a9059cbb906064015b604051602081830303815290604052915060e01b6020820180516001600160e01b038381831617835250505050611e70565b505050565b6000818152600360205260409020600581015442111580611ca457506001810154155b15611cb3574260059091015550565b6000816005015442611cc59190612281565b905060008260010154670de0b6b3a7640000846004015484611ce79190612248565b611cf19190612248565b611cfb919061225f565b905080836006016000828254611d119190612294565b909155505042600590930192909255505050565b6000546001600160a01b03163314610c225760405163118cdaa760e01b815233600482015260240161052e565b611d5a611ee1565b6002805460ff191690557f5db9ee0a495bf2e6ff9c91a7834c1ba4fdd244a5e8aa4e537bd38aeae4b073aa335b6040516001600160a01b03909116815260200160405180910390a1565b600080546001600160a01b038381166001600160a01b0319831681178455604051919092169283917f8be0079c531659141344cd1fd0a4f28419497f9722a3daafe3b4186f6b6457e09190a35050565b6040516001600160a01b038481166024830152838116604483015260648201839052611e2d9186918216906323b872dd90608401611c4a565b50505050565b611e3b611bf9565b6002805460ff191660011790557f62e78cea01bee320cd4e420270b5ea74000d11b0c9f74754ebdbfc544b05a258611d873390565b600080602060008451602086016000885af180611e93576040513d6000823e3d81fd5b50506000513d91508115611eab578060011415611eb8565b6001600160a01b0384163b155b15611e2d57604051635274afe760e01b81526001600160a01b038516600482015260240161052e565b60025460ff16610c2257604051638dfc202b60e01b815260040160405180910390fd5b60405180610140016040528060006001600160a01b0316815260200160008152602001600081526020016000815260200160008152602001600081526020016000815260200160001515815260200160008152602001600081525090565b600060208284031215611f7457600080fd5b5035919050565b80356001600160a01b0381168114611f9257600080fd5b919050565b60008060408385031215611faa57600080fd5b82359150611fba60208401611f7b565b90509250929050565b600080600080600060a08688031215611fdb57600080fd5b611fe486611f7b565b97602087013597506040870135966060810135965060800135945092505050565b80516001600160a01b031682526020810151602083015260408101516040830152606081015160608301526080810151608083015260a081015160a083015260c081015160c083015260e081015161206160e084018215159052565b50610100818101519083015261012090810151910152565b61014081016120888284612005565b92915050565b600080604083850312156120a157600080fd5b50508035926020909101359150565b60008060008060008060c087890312156120c957600080fd5b863595506020870135945060408701359350606087013592506080870135915060a087013580151581146120fc57600080fd5b809150509295509295509295565b6000806040838503121561211d57600080fd5b61212683611f7b565b946020939093013593505050565b6020808252825182820181905260009190848201906040850190845b8181101561217757612163838551612005565b928401926101409290920191600101612150565b50909695505050505050565b60006020828403121561219557600080fd5b61219e82611f7b565b9392505050565b6020808252825182820181905260009190848201906040850190845b81811015612177578351835292840192918401916001016121c1565b6020808252600f908201526e125b9d985b1a59081c1bdbdb081251608a1b604082015260600190565b602080825260129082015271506f6f6c206973206e6f742061637469766560701b604082015260600190565b634e487b7160e01b600052601160045260246000fd5b808202811582820484141761208857612088612232565b60008261227c57634e487b7160e01b600052601260045260246000fd5b500490565b8181038181111561208857612088612232565b8082018082111561208857612088612232565b602080825260139082015272141bdbdb08191bd95cc81b9bdd08195e1a5cdd606a1b604082015260600190565b60208082526026908201527f4d6178207374616b65206c696d6974206d75737420626520677265617465722060408201526507468616e20360d41b606082015260800190565b60208082526027908201527f4d696e207374616b6520616d6f756e74206d75737420626520677265617465726040820152660207468616e20360cc1b606082015260800190565b60208082526028908201527f4d696e207374616b6520616d6f756e742063616e6e6f7420657863656564206d604082015267185e081b1a5b5a5d60c21b606082015260800190565b6000600182016123bb576123bb612232565b5060010190565b6000602082840312156123d457600080fd5b5051919050565b634e487b7160e01b600052604160045260246000fd5b634e487b7160e01b600052603260045260246000fdfea2646970667358221220f38b3cfa33151da7794b49c693e96846a058553ea40cae0f66c8333c19a9866c64736f6c63430008140033",
  "linkReferences": {},
  "deployedLinkReferences": {}
}