{
  "_format": "hh-sol-artifact-1",
  "contractName": "RWAToken",
  "sourceName": "staking/RwaToken.sol",
  "abi": [
    {
      "inputs": [
        {
          "internalType": "string",
          "name": "_name",
          "type": "string"
        },
        {
          "internalType": "string",
          "name": "_symbol",
          "type": "string"
        },
        {
          "internalType": "address",
          "name": "_owner",
          "type": "address"
        },
        {
          "internalType": "address",
          "name": "_feeCollector",
          "type": "address"
        }
      ],
      "stateMutability": "nonpayable",
      "type": "constructor"
    },
    {
      "inputs": [],
      "name": "ArrayLengthMismatch",
      "type": "error"
    },
    {
      "inputs": [
        {
          "internalType": "address",
          "name": "account",
          "type": "address"
        }
      ],
      "name": "BlacklistedAddress",
      "type": "error"
    },
    {
      "inputs": [],
      "name": "CannotBlacklistOwner",
      "type": "error"
    },
    {
      "inputs": [],
      "name": "CheckpointUnorderedInsertion",
      "type": "error"
    },
    {
      "inputs": [],
      "name": "ContractPaused",
      "type": "error"
    },
    {
      "inputs": [],
      "name": "ECDSAInvalidSignature",
      "type": "error"
    },
    {
      "inputs": [
        {
          "internalType": "uint256",
          "name": "length",
          "type": "uint256"
        }
      ],
      "name": "ECDSAInvalidSignatureLength",
      "type": "error"
    },
    {
      "inputs": [
        {
          "internalType": "bytes32",
          "name": "s",
          "type": "bytes32"
        }
      ],
      "name": "ECDSAInvalidSignatureS",
      "type": "error"
    },
    {
      "inputs": [
        {
          "internalType": "uint256",
          "name": "increasedSupply",
          "type": "uint256"
        },
        {
          "internalType": "uint256",
          "name": "cap",
          "type": "uint256"
        }
      ],
      "name": "ERC20ExceededSafeSupply",
      "type": "error"
    },
    {
      "inputs": [
        {
          "internalType": "address",
          "name": "spender",
          "type": "address"
        },
        {
          "internalType": "uint256",
          "name": "allowance",
          "type": "uint256"
        },
        {
          "internalType": "uint256",
          "name": "needed",
          "type": "uint256"
        }
      ],
      "name": "ERC20InsufficientAllowance",
      "type": "error"
    },
    {
      "inputs": [
        {
          "internalType": "address",
          "name": "sender",
          "type": "address"
        },
        {
          "internalType": "uint256",
          "name": "balance",
          "type": "uint256"
        },
        {
          "internalType": "uint256",
          "name": "needed",
          "type": "uint256"
        }
      ],
      "name": "ERC20InsufficientBalance",
      "type": "error"
    },
    {
      "inputs": [
        {
          "internalType": "address",
          "name": "approver",
          "type": "address"
        }
      ],
      "name": "ERC20InvalidApprover",
      "type": "error"
    },
    {
      "inputs": [
        {
          "internalType": "address",
          "name": "receiver",
          "type": "address"
        }
      ],
      "name": "ERC20InvalidReceiver",
      "type": "error"
    },
    {
      "inputs": [
        {
          "internalType": "address",
          "name": "sender",
          "type": "address"
        }
      ],
      "name": "ERC20InvalidSender",
      "type": "error"
    },
    {
      "inputs": [
        {
          "internalType": "address",
          "name": "spender",
          "type": "address"
        }
      ],
      "name": "ERC20InvalidSpender",
      "type": "error"
    },
    {
      "inputs": [
        {
          "internalType": "uint256",
          "name": "timepoint",
          "type": "uint256"
        },
        {
          "internalType": "uint48",
          "name": "clock",
          "type": "uint48"
        }
      ],
      "name": "ERC5805FutureLookup",
      "type": "error"
    },
    {
      "inputs": [],
      "name": "ERC6372InconsistentClock",
      "type": "error"
    },
    {
      "inputs": [],
      "name": "ETHTransferFailed",
      "type": "error"
    },
    {
      "inputs": [],
      "name": "EnforcedPause",
      "type": "error"
    },
    {
      "inputs": [],
      "name": "ExceedsAllowance",
      "type": "error"
    },
    {
      "inputs": [],
      "name": "ExpectedPause",
      "type": "error"
    },
    {
      "inputs": [],
      "name": "InsufficientBalance",
      "type": "error"
    },
    {
      "inputs": [],
      "name": "InsufficientBalanceForTransferAndFee",
      "type": "error"
    },
    {
      "inputs": [],
      "name": "InsufficientETHBalance",
      "type": "error"
    },
    {
      "inputs": [
        {
          "internalType": "address",
          "name": "account",
          "type": "address"
        },
        {
          "internalType": "uint256",
          "name": "currentNonce",
          "type": "uint256"
        }
      ],
      "name": "InvalidAccountNonce",
      "type": "error"
    },
    {
      "inputs": [],
      "name": "InvalidAmount",
      "type": "error"
    },
    {
      "inputs": [
        {
          "internalType": "uint256",
          "name": "fee",
          "type": "uint256"
        },
        {
          "internalType": "uint256",
          "name": "maxFee",
          "type": "uint256"
        }
      ],
      "name": "InvalidFeeAmount",
      "type": "error"
    },
    {
      "inputs": [],
      "name": "InvalidShortString",
      "type": "error"
    },
    {
      "inputs": [
        {
          "internalType": "uint256",
          "name": "requested",
          "type": "uint256"
        },
        {
          "internalType": "uint256",
          "name": "available",
          "type": "uint256"
        }
      ],
      "name": "MintingCapExceeded",
      "type": "error"
    },
    {
      "inputs": [
        {
          "internalType": "uint256",
          "name": "timeRemaining",
          "type": "uint256"
        }
      ],
      "name": "MintingCooldownActive",
      "type": "error"
    },
    {
      "inputs": [
        {
          "internalType": "address",
          "name": "owner",
          "type": "address"
        }
      ],
      "name": "OwnableInvalidOwner",
      "type": "error"
    },
    {
      "inputs": [
        {
          "internalType": "address",
          "name": "account",
          "type": "address"
        }
      ],
      "name": "OwnableUnauthorizedAccount",
      "type": "error"
    },
    {
      "inputs": [],
      "name": "ReentrancyGuardReentrantCall",
      "type": "error"
    },
    {
      "inputs": [
        {
          "internalType": "uint8",
          "name": "bits",
          "type": "uint8"
        },
        {
          "internalType": "uint256",
          "name": "value",
          "type": "uint256"
        }
      ],
      "name": "SafeCastOverflowedUintDowncast",
      "type": "error"
    },
    {
      "inputs": [
        {
          "internalType": "string",
          "name": "str",
          "type": "string"
        }
      ],
      "name": "StringTooLong",
      "type": "error"
    },
    {
      "inputs": [
        {
          "internalType": "uint256",
          "name": "requested",
          "type": "uint256"
        },
        {
          "internalType": "uint256",
          "name": "available",
          "type": "uint256"
        }
      ],
      "name": "SupplyCapExceeded",
      "type": "error"
    },
    {
      "inputs": [],
      "name": "TokenTransferFailed",
      "type": "error"
    },
    {
      "inputs": [],
      "name": "TooManyAccounts",
      "type": "error"
    },
    {
      "inputs": [],
      "name": "TooManyRecipients",
      "type": "error"
    },
    {
      "inputs": [
        {
          "internalType": "uint256",
          "name": "amount",
          "type": "uint256"
        },
        {
          "internalType": "uint256",
          "name": "limit",
          "type": "uint256"
        }
      ],
      "name": "TransferAmountExceedsLimit",
      "type": "error"
    },
    {
      "inputs": [],
      "name": "TransferFailed",
      "type": "error"
    },
    {
      "inputs": [
        {
          "internalType": "uint256",
          "name": "timeRemaining",
          "type": "uint256"
        }
      ],
      "name": "TransferTooSoon",
      "type": "error"
    },
    {
      "inputs": [
        {
          "internalType": "address",
          "name": "minter",
          "type": "address"
        }
      ],
      "name": "UnauthorizedMinter",
      "type": "error"
    },
    {
      "inputs": [
        {
          "internalType": "uint256",
          "name": "expiry",
          "type": "uint256"
        }
      ],
      "name": "VotesExpiredSignature",
      "type": "error"
    },
    {
      "inputs": [],
      "name": "ZeroAddress",
      "type": "error"
    },
    {
      "anonymous": false,
      "inputs": [
        {
          "indexed": true,
          "internalType": "address",
          "name": "owner",
          "type": "address"
        },
        {
          "indexed": true,
          "internalType": "address",
          "name": "spender",
          "type": "address"
        },
        {
          "indexed": false,
          "internalType": "uint256",
          "name": "value",
          "type": "uint256"
        }
      ],
      "name": "Approval",
      "type": "event"
    },
    {
      "anonymous": false,
      "inputs": [
        {
          "indexed": true,
          "internalType": "address",
          "name": "minter",
          "type": "address"
        },
        {
          "indexed": false,
          "internalType": "bool",
          "name": "status",
          "type": "bool"
        }
      ],
      "name": "AuthorizedMinter",
      "type": "event"
    },
    {
      "anonymous": false,
      "inputs": [
        {
          "indexed": true,
          "internalType": "address",
          "name": "account",
          "type": "address"
        },
        {
          "indexed": false,
          "internalType": "bool",
          "name": "status",
          "type": "bool"
        }
      ],
      "name": "Blacklisted",
      "type": "event"
    },
    {
      "anonymous": false,
      "inputs": [
        {
          "indexed": true,
          "internalType": "address",
          "name": "delegator",
          "type": "address"
        },
        {
          "indexed": true,
          "internalType": "address",
          "name": "fromDelegate",
          "type": "address"
        },
        {
          "indexed": true,
          "internalType": "address",
          "name": "toDelegate",
          "type": "address"
        }
      ],
      "name": "DelegateChanged",
      "type": "event"
    },
    {
      "anonymous": false,
      "inputs": [
        {
          "indexed": true,
          "internalType": "address",
          "name": "delegate",
          "type": "address"
        },
        {
          "indexed": false,
          "internalType": "uint256",
          "name": "previousVotes",
          "type": "uint256"
        },
        {
          "indexed": false,
          "internalType": "uint256",
          "name": "newVotes",
          "type": "uint256"
        }
      ],
      "name": "DelegateVotesChanged",
      "type": "event"
    },
    {
      "anonymous": false,
      "inputs": [],
      "name": "EIP712DomainChanged",
      "type": "event"
    },
    {
      "anonymous": false,
      "inputs": [
        {
          "indexed": true,
          "internalType": "address",
          "name": "token",
          "type": "address"
        },
        {
          "indexed": false,
          "internalType": "uint256",
          "name": "amount",
          "type": "uint256"
        },
        {
          "indexed": true,
          "internalType": "address",
          "name": "to",
          "type": "address"
        }
      ],
      "name": "EmergencyWithdrawal",
      "type": "event"
    },
    {
      "anonymous": false,
      "inputs": [
        {
          "indexed": true,
          "internalType": "address",
          "name": "account",
          "type": "address"
        },
        {
          "indexed": false,
          "internalType": "bool",
          "name": "status",
          "type": "bool"
        }
      ],
      "name": "FeeExemptionUpdated",
      "type": "event"
    },
    {
      "anonymous": false,
      "inputs": [
        {
          "indexed": true,
          "internalType": "address",
          "name": "to",
          "type": "address"
        },
        {
          "indexed": false,
          "internalType": "uint256",
          "name": "amount",
          "type": "uint256"
        },
        {
          "indexed": true,
          "internalType": "address",
          "name": "minter",
          "type": "address"
        }
      ],
      "name": "Mint",
      "type": "event"
    },
    {
      "anonymous": false,
      "inputs": [
        {
          "indexed": false,
          "internalType": "uint256",
          "name": "newCap",
          "type": "uint256"
        }
      ],
      "name": "MintingCapUpdated",
      "type": "event"
    },
    {
      "anonymous": false,
      "inputs": [
        {
          "indexed": true,
          "internalType": "address",
          "name": "previousOwner",
          "type": "address"
        },
        {
          "indexed": true,
          "internalType": "address",
          "name": "newOwner",
          "type": "address"
        }
      ],
      "name": "OwnershipTransferred",
      "type": "event"
    },
    {
      "anonymous": false,
      "inputs": [
        {
          "indexed": false,
          "internalType": "address",
          "name": "account",
          "type": "address"
        }
      ],
      "name": "Paused",
      "type": "event"
    },
    {
      "anonymous": false,
      "inputs": [
        {
          "indexed": true,
          "internalType": "address",
          "name": "from",
          "type": "address"
        },
        {
          "indexed": true,
          "internalType": "address",
          "name": "to",
          "type": "address"
        },
        {
          "indexed": false,
          "internalType": "uint256",
          "name": "value",
          "type": "uint256"
        }
      ],
      "name": "Transfer",
      "type": "event"
    },
    {
      "anonymous": false,
      "inputs": [
        {
          "indexed": false,
          "internalType": "uint256",
          "name": "newFee",
          "type": "uint256"
        },
        {
          "indexed": false,
          "internalType": "address",
          "name": "newCollector",
          "type": "address"
        }
      ],
      "name": "TransferFeeUpdated",
      "type": "event"
    },
    {
      "anonymous": false,
      "inputs": [
        {
          "indexed": false,
          "internalType": "bool",
          "name": "enabled",
          "type": "bool"
        },
        {
          "indexed": false,
          "internalType": "uint256",
          "name": "minDelay",
          "type": "uint256"
        },
        {
          "indexed": false,
          "internalType": "uint256",
          "name": "maxAmount",
          "type": "uint256"
        }
      ],
      "name": "TransferRestrictionsUpdated",
      "type": "event"
    },
    {
      "anonymous": false,
      "inputs": [
        {
          "indexed": false,
          "internalType": "address",
          "name": "account",
          "type": "address"
        }
      ],
      "name": "Unpaused",
      "type": "event"
    },
    {
      "inputs": [],
      "name": "CLOCK_MODE",
      "outputs": [
        {
          "internalType": "string",
          "name": "",
          "type": "string"
        }
      ],
      "stateMutability": "view",
      "type": "function"
    },
    {
      "inputs": [],
      "name": "INITIAL_SUPPLY",
      "outputs": [
        {
          "internalType": "uint256",
          "name": "",
          "type": "uint256"
        }
      ],
      "stateMutability": "view",
      "type": "function"
    },
    {
      "inputs": [],
      "name": "MAX_SUPPLY",
      "outputs": [
        {
          "internalType": "uint256",
          "name": "",
          "type": "uint256"
        }
      ],
      "stateMutability": "view",
      "type": "function"
    },
    {
      "inputs": [],
      "name": "MAX_TRANSFER_FEE",
      "outputs": [
        {
          "internalType": "uint256",
          "name": "",
          "type": "uint256"
        }
      ],
      "stateMutability": "view",
      "type": "function"
    },
    {
      "inputs": [],
      "name": "MINT_COOLDOWN",
      "outputs": [
        {
          "internalType": "uint256",
          "name": "",
          "type": "uint256"
        }
      ],
      "stateMutability": "view",
      "type": "function"
    },
    {
      "inputs": [
        {
          "internalType": "address",
          "name": "owner",
          "type": "address"
        },
        {
          "internalType": "address",
          "name": "spender",
          "type": "address"
        }
      ],
      "name": "allowance",
      "outputs": [
        {
          "internalType": "uint256",
          "name": "",
          "type": "uint256"
        }
      ],
      "stateMutability": "view",
      "type": "function"
    },
    {
      "inputs": [
        {
          "internalType": "address",
          "name": "spender",
          "type": "address"
        },
        {
          "internalType": "uint256",
          "name": "value",
          "type": "uint256"
        }
      ],
      "name": "approve",
      "outputs": [
        {
          "internalType": "bool",
          "name": "",
          "type": "bool"
        }
      ],
      "stateMutability": "nonpayable",
      "type": "function"
    },
    {
      "inputs": [
        {
          "internalType": "address",
          "name": "",
          "type": "address"
        }
      ],
      "name": "authorizedMinters",
      "outputs": [
        {
          "internalType": "bool",
          "name": "",
          "type": "bool"
        }
      ],
      "stateMutability": "view",
      "type": "function"
    },
    {
      "inputs": [
        {
          "internalType": "address",
          "name": "account",
          "type": "address"
        }
      ],
      "name": "balanceOf",
      "outputs": [
        {
          "internalType": "uint256",
          "name": "",
          "type": "uint256"
        }
      ],
      "stateMutability": "view",
      "type": "function"
    },
    {
      "inputs": [
        {
          "internalType": "address[]",
          "name": "recipients",
          "type": "address[]"
        },
        {
          "internalType": "uint256[]",
          "name": "amounts",
          "type": "uint256[]"
        }
      ],
      "name": "batchMint",
      "outputs": [],
      "stateMutability": "nonpayable",
      "type": "function"
    },
    {
      "inputs": [
        {
          "internalType": "address[]",
          "name": "accounts",
          "type": "address[]"
        },
        {
          "internalType": "bool",
          "name": "exempt",
          "type": "bool"
        }
      ],
      "name": "batchSetFeeExemption",
      "outputs": [],
      "stateMutability": "nonpayable",
      "type": "function"
    },
    {
      "inputs": [
        {
          "internalType": "address",
          "name": "",
          "type": "address"
        }
      ],
      "name": "blacklisted",
      "outputs": [
        {
          "internalType": "bool",
          "name": "",
          "type": "bool"
        }
      ],
      "stateMutability": "view",
      "type": "function"
    },
    {
      "inputs": [
        {
          "internalType": "uint256",
          "name": "value",
          "type": "uint256"
        }
      ],
      "name": "burn",
      "outputs": [],
      "stateMutability": "nonpayable",
      "type": "function"
    },
    {
      "inputs": [
        {
          "internalType": "address",
          "name": "account",
          "type": "address"
        },
        {
          "internalType": "uint256",
          "name": "value",
          "type": "uint256"
        }
      ],
      "name": "burnFrom",
      "outputs": [],
      "stateMutability": "nonpayable",
      "type": "function"
    },
    {
      "inputs": [
        {
          "internalType": "uint256",
          "name": "amount",
          "type": "uint256"
        }
      ],
      "name": "calculateTransferFee",
      "outputs": [
        {
          "internalType": "uint256",
          "name": "",
          "type": "uint256"
        }
      ],
      "stateMutability": "view",
      "type": "function"
    },
    {
      "inputs": [
        {
          "internalType": "address",
          "name": "account",
          "type": "address"
        },
        {
          "internalType": "uint32",
          "name": "pos",
          "type": "uint32"
        }
      ],
      "name": "checkpoints",
      "outputs": [
        {
          "components": [
            {
              "internalType": "uint48",
              "name": "_key",
              "type": "uint48"
            },
            {
              "internalType": "uint208",
              "name": "_value",
              "type": "uint208"
            }
          ],
          "internalType": "struct Checkpoints.Checkpoint208",
          "name": "",
          "type": "tuple"
        }
      ],
      "stateMutability": "view",
      "type": "function"
    },
    {
      "inputs": [],
      "name": "clock",
      "outputs": [
        {
          "internalType": "uint48",
          "name": "",
          "type": "uint48"
        }
      ],
      "stateMutability": "view",
      "type": "function"
    },
    {
      "inputs": [],
      "name": "decimals",
      "outputs": [
        {
          "internalType": "uint8",
          "name": "",
          "type": "uint8"
        }
      ],
      "stateMutability": "pure",
      "type": "function"
    },
    {
      "inputs": [
        {
          "internalType": "address",
          "name": "delegatee",
          "type": "address"
        }
      ],
      "name": "delegate",
      "outputs": [],
      "stateMutability": "nonpayable",
      "type": "function"
    },
    {
      "inputs": [
        {
          "internalType": "address",
          "name": "delegatee",
          "type": "address"
        },
        {
          "internalType": "uint256",
          "name": "nonce",
          "type": "uint256"
        },
        {
          "internalType": "uint256",
          "name": "expiry",
          "type": "uint256"
        },
        {
          "internalType": "uint8",
          "name": "v",
          "type": "uint8"
        },
        {
          "internalType": "bytes32",
          "name": "r",
          "type": "bytes32"
        },
        {
          "internalType": "bytes32",
          "name": "s",
          "type": "bytes32"
        }
      ],
      "name": "delegateBySig",
      "outputs": [],
      "stateMutability": "nonpayable",
      "type": "function"
    },
    {
      "inputs": [
        {
          "internalType": "address",
          "name": "account",
          "type": "address"
        }
      ],
      "name": "delegates",
      "outputs": [
        {
          "internalType": "address",
          "name": "",
          "type": "address"
        }
      ],
      "stateMutability": "view",
      "type": "function"
    },
    {
      "inputs": [],
      "name": "eip712Domain",
      "outputs": [
        {
          "internalType": "bytes1",
          "name": "fields",
          "type": "bytes1"
        },
        {
          "internalType": "string",
          "name": "name",
          "type": "string"
        },
        {
          "internalType": "string",
          "name": "version",
          "type": "string"
        },
        {
          "internalType": "uint256",
          "name": "chainId",
          "type": "uint256"
        },
        {
          "internalType": "address",
          "name": "verifyingContract",
          "type": "address"
        },
        {
          "internalType": "bytes32",
          "name": "salt",
          "type": "bytes32"
        },
        {
          "internalType": "uint256[]",
          "name": "extensions",
          "type": "uint256[]"
        }
      ],
      "stateMutability": "view",
      "type": "function"
    },
    {
      "inputs": [
        {
          "internalType": "address",
          "name": "token",
          "type": "address"
        },
        {
          "internalType": "uint256",
          "name": "amount",
          "type": "uint256"
        },
        {
          "internalType": "address",
          "name": "to",
          "type": "address"
        }
      ],
      "name": "emergencyWithdraw",
      "outputs": [],
      "stateMutability": "nonpayable",
      "type": "function"
    },
    {
      "inputs": [],
      "name": "feeCollector",
      "outputs": [
        {
          "internalType": "address",
          "name": "",
          "type": "address"
        }
      ],
      "stateMutability": "view",
      "type": "function"
    },
    {
      "inputs": [
        {
          "internalType": "address",
          "name": "",
          "type": "address"
        }
      ],
      "name": "feeExempt",
      "outputs": [
        {
          "internalType": "bool",
          "name": "",
          "type": "bool"
        }
      ],
      "stateMutability": "view",
      "type": "function"
    },
    {
      "inputs": [],
      "name": "getContractInfo",
      "outputs": [
        {
          "internalType": "uint256",
          "name": "_totalSupply",
          "type": "uint256"
        },
        {
          "internalType": "uint256",
          "name": "_maxSupply",
          "type": "uint256"
        },
        {
          "internalType": "uint256",
          "name": "_mintingCap",
          "type": "uint256"
        },
        {
          "internalType": "uint256",
          "name": "_transferFee",
          "type": "uint256"
        },
        {
          "internalType": "bool",
          "name": "_transferRestrictionsEnabled",
          "type": "bool"
        },
        {
          "internalType": "bool",
          "name": "_paused",
          "type": "bool"
        }
      ],
      "stateMutability": "view",
      "type": "function"
    },
    {
      "inputs": [],
      "name": "getCurrentBlock",
      "outputs": [
        {
          "internalType": "uint256",
          "name": "",
          "type": "uint256"
        }
      ],
      "stateMutability": "view",
      "type": "function"
    },
    {
      "inputs": [
        {
          "internalType": "uint256",
          "name": "timepoint",
          "type": "uint256"
        }
      ],
      "name": "getPastTotalSupply",
      "outputs": [
        {
          "internalType": "uint256",
          "name": "",
          "type": "uint256"
        }
      ],
      "stateMutability": "view",
      "type": "function"
    },
    {
      "inputs": [
        {
          "internalType": "address",
          "name": "account",
          "type": "address"
        },
        {
          "internalType": "uint256",
          "name": "blockNumber",
          "type": "uint256"
        }
      ],
      "name": "getPastVotes",
      "outputs": [
        {
          "internalType": "uint256",
          "name": "",
          "type": "uint256"
        }
      ],
      "stateMutability": "view",
      "type": "function"
    },
    {
      "inputs": [
        {
          "internalType": "address",
          "name": "account",
          "type": "address"
        }
      ],
      "name": "getVotes",
      "outputs": [
        {
          "internalType": "uint256",
          "name": "",
          "type": "uint256"
        }
      ],
      "stateMutability": "view",
      "type": "function"
    },
    {
      "inputs": [
        {
          "internalType": "address",
          "name": "account",
          "type": "address"
        }
      ],
      "name": "isFeeExempt",
      "outputs": [
        {
          "internalType": "bool",
          "name": "",
          "type": "bool"
        }
      ],
      "stateMutability": "view",
      "type": "function"
    },
    {
      "inputs": [],
      "name": "lastMintTime",
      "outputs": [
        {
          "internalType": "uint256",
          "name": "",
          "type": "uint256"
        }
      ],
      "stateMutability": "view",
      "type": "function"
    },
    {
      "inputs": [
        {
          "internalType": "address",
          "name": "",
          "type": "address"
        }
      ],
      "name": "lastTransferTime",
      "outputs": [
        {
          "internalType": "uint256",
          "name": "",
          "type": "uint256"
        }
      ],
      "stateMutability": "view",
      "type": "function"
    },
    {
      "inputs": [],
      "name": "maxTransferAmount",
      "outputs": [
        {
          "internalType": "uint256",
          "name": "",
          "type": "uint256"
        }
      ],
      "stateMutability": "view",
      "type": "function"
    },
    {
      "inputs": [],
      "name": "minTransferDelay",
      "outputs": [
        {
          "internalType": "uint256",
          "name": "",
          "type": "uint256"
        }
      ],
      "stateMutability": "view",
      "type": "function"
    },
    {
      "inputs": [
        {
          "internalType": "address",
          "name": "to",
          "type": "address"
        },
        {
          "internalType": "uint256",
          "name": "amount",
          "type": "uint256"
        }
      ],
      "name": "mint",
      "outputs": [],
      "stateMutability": "nonpayable",
      "type": "function"
    },
    {
      "inputs": [],
      "name": "mintCooldownRemaining",
      "outputs": [
        {
          "internalType": "uint256",
          "name": "",
          "type": "uint256"
        }
      ],
      "stateMutability": "view",
      "type": "function"
    },
    {
      "inputs": [],
      "name": "mintingCap",
      "outputs": [
        {
          "internalType": "uint256",
          "name": "",
          "type": "uint256"
        }
      ],
      "stateMutability": "view",
      "type": "function"
    },
    {
      "inputs": [],
      "name": "name",
      "outputs": [
        {
          "internalType": "string",
          "name": "",
          "type": "string"
        }
      ],
      "stateMutability": "view",
      "type": "function"
    },
    {
      "inputs": [
        {
          "internalType": "address",
          "name": "owner",
          "type": "address"
        }
      ],
      "name": "nonces",
      "outputs": [
        {
          "internalType": "uint256",
          "name": "",
          "type": "uint256"
        }
      ],
      "stateMutability": "view",
      "type": "function"
    },
    {
      "inputs": [
        {
          "internalType": "address",
          "name": "account",
          "type": "address"
        }
      ],
      "name": "numCheckpoints",
      "outputs": [
        {
          "internalType": "uint32",
          "name": "",
          "type": "uint32"
        }
      ],
      "stateMutability": "view",
      "type": "function"
    },
    {
      "inputs": [],
      "name": "owner",
      "outputs": [
        {
          "internalType": "address",
          "name": "",
          "type": "address"
        }
      ],
      "stateMutability": "view",
      "type": "function"
    },
    {
      "inputs": [],
      "name": "pause",
      "outputs": [],
      "stateMutability": "nonpayable",
      "type": "function"
    },
    {
      "inputs": [],
      "name": "paused",
      "outputs": [
        {
          "internalType": "bool",
          "name": "",
          "type": "bool"
        }
      ],
      "stateMutability": "view",
      "type": "function"
    },
    {
      "inputs": [],
      "name": "remainingSupply",
      "outputs": [
        {
          "internalType": "uint256",
          "name": "",
          "type": "uint256"
        }
      ],
      "stateMutability": "view",
      "type": "function"
    },
    {
      "inputs": [],
      "name": "renounceOwnership",
      "outputs": [],
      "stateMutability": "nonpayable",
      "type": "function"
    },
    {
      "inputs": [
        {
          "internalType": "address",
          "name": "minter",
          "type": "address"
        },
        {
          "internalType": "bool",
          "name": "status",
          "type": "bool"
        }
      ],
      "name": "setAuthorizedMinter",
      "outputs": [],
      "stateMutability": "nonpayable",
      "type": "function"
    },
    {
      "inputs": [
        {
          "internalType": "address",
          "name": "account",
          "type": "address"
        },
        {
          "internalType": "bool",
          "name": "status",
          "type": "bool"
        }
      ],
      "name": "setBlacklisted",
      "outputs": [],
      "stateMutability": "nonpayable",
      "type": "function"
    },
    {
      "inputs": [
        {
          "internalType": "address",
          "name": "account",
          "type": "address"
        },
        {
          "internalType": "bool",
          "name": "exempt",
          "type": "bool"
        }
      ],
      "name": "setFeeExemption",
      "outputs": [],
      "stateMutability": "nonpayable",
      "type": "function"
    },
    {
      "inputs": [
        {
          "internalType": "uint256",
          "name": "newCap",
          "type": "uint256"
        }
      ],
      "name": "setMintingCap",
      "outputs": [],
      "stateMutability": "nonpayable",
      "type": "function"
    },
    {
      "inputs": [
        {
          "internalType": "uint256",
          "name": "newFee",
          "type": "uint256"
        },
        {
          "internalType": "address",
          "name": "newCollector",
          "type": "address"
        }
      ],
      "name": "setTransferFee",
      "outputs": [],
      "stateMutability": "nonpayable",
      "type": "function"
    },
    {
      "inputs": [
        {
          "internalType": "bool",
          "name": "enabled",
          "type": "bool"
        },
        {
          "internalType": "uint256",
          "name": "minDelay",
          "type": "uint256"
        },
        {
          "internalType": "uint256",
          "name": "maxAmount",
          "type": "uint256"
        }
      ],
      "name": "setTransferRestrictions",
      "outputs": [],
      "stateMutability": "nonpayable",
      "type": "function"
    },
    {
      "inputs": [],
      "name": "symbol",
      "outputs": [
        {
          "internalType": "string",
          "name": "",
          "type": "string"
        }
      ],
      "stateMutability": "view",
      "type": "function"
    },
    {
      "inputs": [],
      "name": "totalSupply",
      "outputs": [
        {
          "internalType": "uint256",
          "name": "",
          "type": "uint256"
        }
      ],
      "stateMutability": "view",
      "type": "function"
    },
    {
      "inputs": [
        {
          "internalType": "address",
          "name": "to",
          "type": "address"
        },
        {
          "internalType": "uint256",
          "name": "amount",
          "type": "uint256"
        }
      ],
      "name": "transfer",
      "outputs": [
        {
          "internalType": "bool",
          "name": "",
          "type": "bool"
        }
      ],
      "stateMutability": "nonpayable",
      "type": "function"
    },
    {
      "inputs": [],
      "name": "transferFee",
      "outputs": [
        {
          "internalType": "uint256",
          "name": "",
          "type": "uint256"
        }
      ],
      "stateMutability": "view",
      "type": "function"
    },
    {
      "inputs": [
        {
          "internalType": "address",
          "name": "from",
          "type": "address"
        },
        {
          "internalType": "address",
          "name": "to",
          "type": "address"
        },
        {
          "internalType": "uint256",
          "name": "amount",
          "type": "uint256"
        }
      ],
      "name": "transferFrom",
      "outputs": [
        {
          "internalType": "bool",
          "name": "",
          "type": "bool"
        }
      ],
      "stateMutability": "nonpayable",
      "type": "function"
    },
    {
      "inputs": [
        {
          "internalType": "address",
          "name": "newOwner",
          "type": "address"
        }
      ],
      "name": "transferOwnership",
      "outputs": [],
      "stateMutability": "nonpayable",
      "type": "function"
    },
    {
      "inputs": [],
      "name": "transferRestrictionsEnabled",
      "outputs": [
        {
          "internalType": "bool",
          "name": "",
          "type": "bool"
        }
      ],
      "stateMutability": "view",
      "type": "function"
    },
    {
      "inputs": [],
      "name": "unpause",
      "outputs": [],
      "stateMutability": "nonpayable",
      "type": "function"
    },
    {
      "stateMutability": "payable",
      "type": "receive"
    }
  ],
  "bytecode": "0x610160604052620000136012600a62000cae565b62000022906298968062000cbf565b600e556014805460ff191690556000601555620000426012600a62000cae565b6200005290633b9aca0062000cbf565b60165560006017553480156200006757600080fd5b5060405162004b7438038062004b748339810160408190526200008a9162000dc3565b6040805180820190915260018152603160f81b60208201528290859081866003620000b6838262000ee0565b506004620000c5828262000ee0565b50620000d7915083905060066200030c565b61012052620000e88160076200030c565b61014052815160208084019190912060e052815190820120610100524660a0526200017660e05161010051604080517f8b73c3c69bb8fe3d512ecc4cf759cc79239f7b179b0ffacaa9a75d522b39400f60208201529081019290925260608201524660808201523060a082015260009060c00160405160208183030381529060405280519060200120905090565b60805250503060c0526001600160a01b038116620001af57604051631e4fbdf760e01b8152600060048201526024015b60405180910390fd5b620001ba8162000345565b506001600d556001600160a01b038216620001e85760405163d92e233d60e01b815260040160405180910390fd5b6001600160a01b038116620002105760405163d92e233d60e01b815260040160405180910390fd5b601880546001600160a01b0319166001600160a01b03831617905542600f556200025882620002426012600a62000cae565b62000252906305f5e10062000cbf565b62000397565b6001600160a01b03821660008181526011602090815260408083208054600160ff199182168117909255601384529382902080549094168117909355519182527f8067b5b4e6aaf9501968b616ee3c35981a06a3305241ecea17f99b6b399b5c33910160405180910390a2604051600181526001600160a01b038316907f69e34a174b4a0cce59950c4c852317e9797bdcae125fbf8b5dd8b4311384412f9060200160405180910390a2505050506200107f565b60006020835110156200032c576200032483620003d5565b90506200033f565b8162000339848262000ee0565b5060ff90505b92915050565b600c80546001600160a01b038381166001600160a01b0319831681179093556040519116919082907f8be0079c531659141344cd1fd0a4f28419497f9722a3daafe3b4186f6b6457e090600090a35050565b6001600160a01b038216620003c35760405163ec442f0560e01b815260006004820152602401620001a6565b620003d16000838362000418565b5050565b600080829050601f8151111562000403578260405163305a27a960e01b8152600401620001a6919062000fac565b8051620004108262000fe1565b179392505050565b60055460ff16156200043d5760405163ab35696f60e01b815260040160405180910390fd5b6001600160a01b038316158015906200046e57506001600160a01b03831660009081526010602052604090205460ff165b15620004995760405163d33f19e760e01b81526001600160a01b0384166004820152602401620001a6565b6001600160a01b03821615801590620004ca57506001600160a01b03821660009081526010602052604090205460ff165b15620004f55760405163d33f19e760e01b81526001600160a01b0383166004820152602401620001a6565b6200050283838362000507565b505050565b6200051483838362000576565b6001600160a01b038316620005695760006200052f60025490565b90506001600160d01b03808211156200056657604051630e58ae9360e11b81526004810183905260248101829052604401620001a6565b50505b620005028383836200058d565b6200058062000625565b620005028383836200064c565b6001600160a01b038316620005c257620005bf600b62001e306200077f60201b17620005b98462000794565b620007ce565b50505b6001600160a01b038216620005f157620005ee600b62001e3c6200080b60201b17620005b98462000794565b50505b6001600160a01b03838116600090815260096020526040808220548584168352912054620005029291821691168362000819565b60055460ff16156200064a5760405163d93c066560e01b815260040160405180910390fd5b565b6001600160a01b0383166200067b5780600260008282546200066f919062001006565b90915550620006ef9050565b6001600160a01b03831660009081526020819052604090205481811015620006d05760405163391434e360e21b81526001600160a01b03851660048201526024810182905260448101839052606401620001a6565b6001600160a01b03841660009081526020819052604090209082900390555b6001600160a01b0382166200070d576002805482900390556200072c565b6001600160a01b03821660009081526020819052604090208054820190555b816001600160a01b0316836001600160a01b03167fddf252ad1be2c89b69c2b068fc378daa952ba7f163c4a11628f55a4df523b3ef836040516200077291815260200190565b60405180910390a3505050565b60006200078d82846200101c565b9392505050565b60006001600160d01b03821115620007ca576040516306dfcc6560e41b815260d0600482015260248101839052604401620001a6565b5090565b600080620007fe620007df62000980565b620007f5620007ee8862000991565b868860201c565b879190620009e0565b915091505b935093915050565b60006200078d828462001046565b816001600160a01b0316836001600160a01b0316141580156200083c5750600081115b1562000502576001600160a01b03831615620008df576001600160a01b0383166000908152600a60209081526040822082916200088a91906200080b901b62001e3c17620005b98662000794565b6001600160d01b031691506001600160d01b03169150846001600160a01b031660008051602062004b548339815191528383604051620008d4929190918252602082015260400190565b60405180910390a250505b6001600160a01b0382161562000502576001600160a01b0382166000908152600a60209081526040822082916200092791906200077f901b62001e3017620005b98662000794565b6001600160d01b031691506001600160d01b03169150836001600160a01b031660008051602062004b54833981519152838360405162000971929190918252602082015260400190565b60405180910390a25050505050565b60006200098c620009f0565b905090565b80546000908015620009d757620009bd83620009af60018462001069565b600091825260209091200190565b54660100000000000090046001600160d01b03166200078d565b60009392505050565b600080620007fe858585620009fd565b60006200098c4362000b66565b82546000908190801562000b0757600062000a1f87620009af60018562001069565b805490915065ffffffffffff80821691660100000000000090046001600160d01b031690881682111562000a6657604051632520601d60e01b815260040160405180910390fd5b8765ffffffffffff168265ffffffffffff160362000aa457825465ffffffffffff1666010000000000006001600160d01b0389160217835562000af8565b6040805180820190915265ffffffffffff808a1682526001600160d01b03808a1660208085019182528d54600181018f5560008f815291909120945191519092166601000000000000029216919091179101555b94508593506200080392505050565b50506040805180820190915265ffffffffffff80851682526001600160d01b0380851660208085019182528854600181018a5560008a815291822095519251909316660100000000000002919093161792019190915590508162000803565b600065ffffffffffff821115620007ca576040516306dfcc6560e41b81526030600482015260248101839052604401620001a6565b634e487b7160e01b600052601160045260246000fd5b600181815b8085111562000bf257816000190482111562000bd65762000bd662000b9b565b8085161562000be457918102915b93841c939080029062000bb6565b509250929050565b60008262000c0b575060016200033f565b8162000c1a575060006200033f565b816001811462000c33576002811462000c3e5762000c5e565b60019150506200033f565b60ff84111562000c525762000c5262000b9b565b50506001821b6200033f565b5060208310610133831016604e8410600b841016171562000c83575081810a6200033f565b62000c8f838362000bb1565b806000190482111562000ca65762000ca662000b9b565b029392505050565b60006200078d60ff84168362000bfa565b80820281158282048414176200033f576200033f62000b9b565b634e487b7160e01b600052604160045260246000fd5b60005b8381101562000d0c57818101518382015260200162000cf2565b50506000910152565b600082601f83011262000d2757600080fd5b81516001600160401b038082111562000d445762000d4462000cd9565b604051601f8301601f19908116603f0116810190828211818310171562000d6f5762000d6f62000cd9565b8160405283815286602085880101111562000d8957600080fd5b62000d9c84602083016020890162000cef565b9695505050505050565b80516001600160a01b038116811462000dbe57600080fd5b919050565b6000806000806080858703121562000dda57600080fd5b84516001600160401b038082111562000df257600080fd5b62000e008883890162000d15565b9550602087015191508082111562000e1757600080fd5b5062000e268782880162000d15565b93505062000e376040860162000da6565b915062000e476060860162000da6565b905092959194509250565b600181811c9082168062000e6757607f821691505b60208210810362000e8857634e487b7160e01b600052602260045260246000fd5b50919050565b601f8211156200050257600081815260208120601f850160051c8101602086101562000eb75750805b601f850160051c820191505b8181101562000ed85782815560010162000ec3565b505050505050565b81516001600160401b0381111562000efc5762000efc62000cd9565b62000f148162000f0d845462000e52565b8462000e8e565b602080601f83116001811462000f4c576000841562000f335750858301515b600019600386901b1c1916600185901b17855562000ed8565b600085815260208120601f198616915b8281101562000f7d5788860151825594840194600190910190840162000f5c565b508582101562000f9c5787850151600019600388901b60f8161c191681555b5050505050600190811b01905550565b602081526000825180602084015262000fcd81604085016020870162000cef565b601f01601f19169190910160400192915050565b8051602080830151919081101562000e885760001960209190910360031b1b16919050565b808201808211156200033f576200033f62000b9b565b6001600160d01b038181168382160190808211156200103f576200103f62000b9b565b5092915050565b6001600160d01b038281168282160390808211156200103f576200103f62000b9b565b818103818111156200033f576200033f62000b9b565b60805160a05160c05160e051610100516101205161014051613a7a620010da600039600061235b0152600061232e01526000612cf301526000612ccb01526000612c2601526000612c5001526000612c7a0152613a7a6000f3fe60806040526004361061039b5760003560e01c806375e61533116101dc578063a9e7572311610102578063d01dd6d2116100a0578063ed58bad81161006f578063ed58bad814610b09578063f1127ed814610b29578063f2fde38b14610b75578063f7ee7a4314610b9557600080fd5b8063d01dd6d214610a84578063da0239a614610aa4578063dbac26e914610ab9578063dd62ed3e14610ae957600080fd5b8063b2b6bef5116100dc578063b2b6bef514610a0e578063bad8fcaa14610a24578063c3cda52014610a44578063c415b95c14610a6457600080fd5b8063a9e75723146109b2578063aa2fe91b146109c8578063acb2ad6f146109f857600080fd5b80638e539e8c1161017a5780639d463520116101495780639d46352014610947578063a67584481461095d578063a7e298721461097d578063a9059cbb1461099257600080fd5b80638e539e8c146108c657806391ddadf4146108e657806395d89b41146109125780639ab24eb01461092757600080fd5b80637ecebe00116101b65780637ecebe00146108355780638456cb591461086b57806384b0196e146108805780638da5cb5b146108a857600080fd5b806375e61533146107af57806379cc6790146107cf5780637cc1f867146107ef57600080fd5b806342966c68116102c15780635c975abb1161025f5780636fcfff451161022e5780636fcfff451461070f57806370a0823114610744578063715018a61461077a578063751fd1791461078f57600080fd5b80635c975abb146106ae5780635f77c2d9146106c6578063672d5d3b146106dc57806368573107146106ef57600080fd5b80634bf5d7e91161029b5780634bf5d7e914610608578063551512de1461061d578063587cde1e1461063d5780635c19a95c1461068e57600080fd5b806342966c68146105ae57806345cb1258146105ce5780634b04575b146105e857600080fd5b806332cb6b0c116103395780633f23a566116103085780633f23a566146105285780633f4218e01461053e5780633f4ba83a1461057757806340c10f191461058e57600080fd5b806332cb6b0c146104a357806337800bde146104b8578063398daa85146104d85780633a46b1a81461050857600080fd5b806318160ddd1161037557806318160ddd1461043d57806323b872dd146104525780632ff2e9dc14610472578063313ce5671461048757600080fd5b806306fdde03146103a7578063095ea7b3146103d25780630d2d8a311461040257600080fd5b366103a257005b600080fd5b3480156103b357600080fd5b506103bc610bac565b6040516103c991906133ed565b60405180910390f35b3480156103de57600080fd5b506103f26103ed36600461341c565b610c3e565b60405190151581526020016103c9565b34801561040e57600080fd5b5061042f61041d366004613446565b60126020526000908152604090205481565b6040519081526020016103c9565b34801561044957600080fd5b5060025461042f565b34801561045e57600080fd5b506103f261046d366004613461565b610c58565b34801561047e57600080fd5b5061042f610dff565b34801561049357600080fd5b50604051601281526020016103c9565b3480156104af57600080fd5b5061042f610e1c565b3480156104c457600080fd5b5061042f6104d336600461349d565b610e36565b3480156104e457600080fd5b506103f26104f3366004613446565b60136020526000908152604090205460ff1681565b34801561051457600080fd5b5061042f61052336600461341c565b610e8a565b34801561053457600080fd5b5061042f600e5481565b34801561054a57600080fd5b506103f2610559366004613446565b6001600160a01b031660009081526013602052604090205460ff1690565b34801561058357600080fd5b5061058c610e96565b005b34801561059a57600080fd5b5061058c6105a936600461341c565b610ea8565b3480156105ba57600080fd5b5061058c6105c936600461349d565b611065565b3480156105da57600080fd5b506014546103f29060ff1681565b3480156105f457600080fd5b5061058c6106033660046134b6565b611072565b34801561061457600080fd5b506103bc611130565b34801561062957600080fd5b5061058c6106383660046134e2565b6111a8565b34801561064957600080fd5b50610676610658366004613446565b6001600160a01b039081166000908152600960205260409020541690565b6040516001600160a01b0390911681526020016103c9565b34801561069a57600080fd5b5061058c6106a9366004613446565b611394565b3480156106ba57600080fd5b5060055460ff166103f2565b3480156106d257600080fd5b5061042f60155481565b3480156106e857600080fd5b504361042f565b3480156106fb57600080fd5b5061058c61070a36600461356a565b61139f565b34801561071b57600080fd5b5061072f61072a366004613446565b611636565b60405163ffffffff90911681526020016103c9565b34801561075057600080fd5b5061042f61075f366004613446565b6001600160a01b031660009081526020819052604090205490565b34801561078657600080fd5b5061058c611641565b34801561079b57600080fd5b5061058c6107aa3660046135e4565b611653565b3480156107bb57600080fd5b5061058c6107ca36600461361b565b6116e2565b3480156107db57600080fd5b5061058c6107ea36600461341c565b61176b565b3480156107fb57600080fd5b50610804611780565b60408051968752602087019590955293850192909252606084015215156080830152151560a082015260c0016103c9565b34801561084157600080fd5b5061042f610850366004613446565b6001600160a01b031660009081526008602052604090205490565b34801561087757600080fd5b5061058c6117d7565b34801561088c57600080fd5b506108956117e7565b6040516103c99796959493929190613650565b3480156108b457600080fd5b50600c546001600160a01b0316610676565b3480156108d257600080fd5b5061042f6108e136600461349d565b61182d565b3480156108f257600080fd5b506108fb611852565b60405165ffffffffffff90911681526020016103c9565b34801561091e57600080fd5b506103bc611861565b34801561093357600080fd5b5061042f610942366004613446565b611870565b34801561095357600080fd5b5061042f600f5481565b34801561096957600080fd5b5061058c61097836600461349d565b61187b565b34801561098957600080fd5b5061042f611919565b34801561099e57600080fd5b506103f26109ad36600461341c565b61194e565b3480156109be57600080fd5b5061042f60165481565b3480156109d457600080fd5b506103f26109e3366004613446565b60116020526000908152604090205460ff1681565b348015610a0457600080fd5b5061042f60175481565b348015610a1a57600080fd5b5061042f6101f481565b348015610a3057600080fd5b5061058c610a3f3660046136e6565b611a6f565b348015610a5057600080fd5b5061058c610a5f36600461373d565b611bc3565b348015610a7057600080fd5b50601854610676906001600160a01b031681565b348015610a9057600080fd5b5061058c610a9f3660046135e4565b611c80565b348015610ab057600080fd5b5061042f611d1d565b348015610ac557600080fd5b506103f2610ad4366004613446565b60106020526000908152604090205460ff1681565b348015610af557600080fd5b5061042f610b0436600461379d565b611d4c565b348015610b1557600080fd5b5061058c610b243660046135e4565b611d77565b348015610b3557600080fd5b50610b49610b443660046137c7565b611dd7565b60408051825165ffffffffffff1681526020928301516001600160d01b031692810192909252016103c9565b348015610b8157600080fd5b5061058c610b90366004613446565b611df5565b348015610ba157600080fd5b5061042f62278d0081565b606060038054610bbb906137fc565b80601f0160208091040260200160405190810160405280929190818152602001828054610be7906137fc565b8015610c345780601f10610c0957610100808354040283529160200191610c34565b820191906000526020600020905b815481529060010190602001808311610c1757829003601f168201915b5050505050905090565b600033610c4c818585611e48565b60019150505b92915050565b6000610c62611e55565b6000610c6e8533611d4c565b6017549091508015801590610c9c57506001600160a01b03861660009081526013602052604090205460ff16155b8015610cc157506001600160a01b03851660009081526013602052604090205460ff16155b15610da6576000612710610cd5838761384c565b610cdf9190613879565b905080158015610cef5750600082115b15610cf8575060015b6000610d04828761389b565b905085841015610d2757604051634ec1ad0560e11b815260040160405180910390fd5b80610d47896001600160a01b031660009081526020819052604090205490565b1015610d6657604051630606635960e31b815260040160405180910390fd5b610d71888883611e7f565b601854610d899089906001600160a01b031684612012565b610d94883388612071565b610d9f888888612012565b5050610de8565b83821015610dc757604051634ec1ad0560e11b815260040160405180910390fd5b610dd2868686611e7f565b610ddd863386612071565b610de8868686612012565b600192505050610df86001600d55565b9392505050565b610e0b6012600a613992565b610e19906305f5e10061384c565b81565b610e286012600a613992565b610e1990633b9aca0061384c565b601754600090808203610e4c5750600092915050565b6000612710610e5b838661384c565b610e659190613879565b905080158015610e755750600082115b610e7f5780610e82565b60015b949350505050565b6000610df883836120d2565b610e9e61210e565b610ea661213b565b565b610eb0611e55565b6001600160a01b038216610ed75760405163d92e233d60e01b815260040160405180910390fd5b3360009081526011602052604090205460ff16610f0e5760405163a4f3966560e01b81523360048201526024015b60405180910390fd5b600f54600e54610f2162278d008361389b565b421015610f5c5742610f3662278d008461389b565b610f4091906139a1565b604051630c79dfd360e21b8152600401610f0591815260200190565b80831115610f87576040516302a2270560e61b81526004810184905260248101829052604401610f05565b6000610f9260025490565b9050610fa06012600a613992565b610fae90633b9aca0061384c565b610fb8858361389b565b1115611006578381610fcc6012600a613992565b610fda90633b9aca0061384c565b610fe491906139a1565b604051634b344b1160e01b815260048101929092526024820152604401610f05565b42600f55611014858561218d565b60405184815233906001600160a01b038716907fbcad3d7d3dfccb90d49c6063bf70f828901fefc88937d90af74e58e6e55bc39d9060200160405180910390a35050506110616001600d55565b5050565b61106f33826121c3565b50565b61107a61210e565b6101f48211156110a8576040516318731f9b60e01b8152600481018390526101f46024820152604401610f05565b6001600160a01b0381166110cf5760405163d92e233d60e01b815260040160405180910390fd5b6017829055601880546001600160a01b0319166001600160a01b0383169081179091556040805184815260208101929092527fc261960294dbbf0305f158194e210560c835da9331faa94fdbf4c9a09c7557a7910160405180910390a15050565b606061113a6121f9565b65ffffffffffff1661114a611852565b65ffffffffffff1614611170576040516301bfc1c560e61b815260040160405180910390fd5b5060408051808201909152601d81527f6d6f64653d626c6f636b6e756d6265722666726f6d3d64656661756c74000000602082015290565b6111b061210e565b6111b8611e55565b6001600160a01b0381166111df5760405163d92e233d60e01b815260040160405180910390fd5b806001600160a01b0316836001600160a01b03167f3ab9db27a4cdd8c603a752b62d5fbd93b4b3509fe2596708e9688e42bbac35768460405161122491815260200190565b60405180910390a36001600160a01b0383166112d5578147101561125b57604051635dd9055760e11b815260040160405180910390fd5b6000816001600160a01b03168360405160006040518083038185875af1925050503d80600081146112a8576040519150601f19603f3d011682016040523d82523d6000602084013e6112ad565b606091505b50509050806112cf5760405163b12d13eb60e01b815260040160405180910390fd5b50611385565b306001600160a01b038416036112f5576112f0308284612012565b611385565b60405163a9059cbb60e01b81526001600160a01b0382811660048301526024820184905284169063a9059cbb906044016020604051808303816000875af1158015611344573d6000803e3d6000fd5b505050506040513d601f19601f8201168201806040525081019061136891906139b4565b6113855760405163022e258160e11b815260040160405180910390fd5b61138f6001600d55565b505050565b336110618183612204565b6113a7611e55565b3360009081526011602052604090205460ff166113d95760405163a4f3966560e01b8152336004820152602401610f05565b828181146113fa5760405163512509d360e11b815260040160405180910390fd5b606481111561141c57604051635531b49560e01b815260040160405180910390fd5b600f54600e546000805b848110156114ac576000898983818110611442576114426139d1565b90506020020160208101906114579190613446565b6001600160a01b03160361147e5760405163d92e233d60e01b815260040160405180910390fd5b868682818110611490576114906139d1565b90506020020135826114a2919061389b565b9150600101611426565b506114ba62278d008461389b565b4210156114cf5742610f3662278d008561389b565b818111156114fa576040516302a2270560e61b81526004810182905260248101839052604401610f05565b600061150560025490565b90506115136012600a613992565b61152190633b9aca0061384c565b61152b838361389b565b111561153f578181610fcc6012600a613992565b42600f5560005b85811015611620576115968a8a83818110611563576115636139d1565b90506020020160208101906115789190613446565b89898481811061158a5761158a6139d1565b9050602002013561218d565b338a8a838181106115a9576115a96139d1565b90506020020160208101906115be9190613446565b6001600160a01b03167fbcad3d7d3dfccb90d49c6063bf70f828901fefc88937d90af74e58e6e55bc39d8a8a858181106115fa576115fa6139d1565b9050602002013560405161161091815260200190565b60405180910390a3600101611546565b5050505050506116306001600d55565b50505050565b6000610c5282612276565b61164961210e565b610ea66000612298565b61165b61210e565b6001600160a01b0382166116825760405163d92e233d60e01b815260040160405180910390fd5b6001600160a01b038216600081815260136020908152604091829020805460ff191685151590811790915591519182527f69e34a174b4a0cce59950c4c852317e9797bdcae125fbf8b5dd8b4311384412f91015b60405180910390a25050565b6116ea61210e565b8060000361170b5760405163162908e360e11b815260040160405180910390fd5b6014805460ff191684151590811790915560158390556016829055604080519182526020820184905281018290527f50ad5e1d38ca75ab081be7d1b7681304da3a96c94baa77176eb60f0beb9045f69060600160405180910390a1505050565b611776823383612071565b61106182826121c3565b60008060008060008061179260025490565b61179e6012600a613992565b6117ac90633b9aca0061384c565b600e5460175460145460ff166117c460055460ff1690565b949b939a50919850965094509092509050565b6117df61210e565b610ea66122ea565b6000606080600080600060606117fb612327565b611803612354565b60408051600080825260208201909252600f60f81b9b939a50919850469750309650945092509050565b600061184361183b83612381565b600b906123d0565b6001600160d01b031692915050565b600061185c6121f9565b905090565b606060048054610bbb906137fc565b6000610c5282612486565b61188361210e565b806000036118a45760405163162908e360e11b815260040160405180910390fd5b6118b06012600a613992565b6118be90633b9aca0061384c565b8111156118de5760405163162908e360e11b815260040160405180910390fd5b600e8190556040518181527f3c22a8c4e30793d261fd72954ab97d9c314446ba7612a4ad133b88668cea12d29060200160405180910390a150565b60008062278d00600f5461192d919061389b565b905080421061193e57600091505090565b61194842826139a1565b91505090565b6000611958611e55565b601754801580159061197a57503360009081526013602052604090205460ff16155b801561199f57506001600160a01b03841660009081526013602052604090205460ff16155b15611a4a5760006127106119b3838661384c565b6119bd9190613879565b9050801580156119cd5750600082115b156119d6575060015b60006119e2828661389b565b33600090815260208190526040902054909150811115611a1557604051630606635960e31b815260040160405180910390fd5b611a20338783611e7f565b601854611a389033906001600160a01b031684612012565b611a43338787612012565b5050611a60565b611a55338585611e7f565b611a60338585612012565b6001915050610c526001600d55565b611a7761210e565b816064811115611a9a57604051639ed3ecbb60e01b815260040160405180910390fd5b60005b81811015611bbc576000858583818110611ab957611ab96139d1565b9050602002016020810190611ace9190613446565b6001600160a01b031603611af55760405163d92e233d60e01b815260040160405180910390fd5b8260136000878785818110611b0c57611b0c6139d1565b9050602002016020810190611b219190613446565b6001600160a01b031681526020810191909152604001600020805460ff1916911515919091179055848482818110611b5b57611b5b6139d1565b9050602002016020810190611b709190613446565b6001600160a01b03167f69e34a174b4a0cce59950c4c852317e9797bdcae125fbf8b5dd8b4311384412f84604051611bac911515815260200190565b60405180910390a2600101611a9d565b5050505050565b83421115611be757604051632341d78760e11b815260048101859052602401610f05565b604080517fe48329057bfd03d55e49b547132e39cffd9c1820ad7b9d4c5307691425d15adf60208201526001600160a01b038816918101919091526060810186905260808101859052600090611c6190611c599060a001604051602081830303815290604052805190602001206124a7565b8585856124d4565b9050611c6d8187612502565b611c778188612204565b50505050505050565b611c8861210e565b600c546001600160a01b03166001600160a01b0316826001600160a01b031603611cc5576040516339b9e47160e21b815260040160405180910390fd5b6001600160a01b038216600081815260106020908152604091829020805460ff191685151590811790915591519182527fcf3473b85df1594d47b6958f29a32bea0abff9dd68296f7bf33443646793cfd891016116d6565b6000611d2860025490565b611d346012600a613992565b611d4290633b9aca0061384c565b61185c91906139a1565b6001600160a01b03918216600090815260016020908152604080832093909416825291909152205490565b611d7f61210e565b6001600160a01b038216600081815260116020908152604091829020805460ff191685151590811790915591519182527f8067b5b4e6aaf9501968b616ee3c35981a06a3305241ecea17f99b6b399b5c3391016116d6565b6040805180820190915260008082526020820152610df88383612555565b611dfd61210e565b6001600160a01b038116611e2757604051631e4fbdf760e01b815260006004820152602401610f05565b61106f81612298565b6000610df882846139e7565b6000610df88284613a0e565b61138f838383600161258b565b6002600d5403611e7857604051633ee5aeb560e01b815260040160405180910390fd5b6002600d55565b6001600160a01b0383161580611e9c57506001600160a01b038216155b15611ea657505050565b6001600160a01b03831660009081526010602052604090205460ff1615611eeb5760405163d33f19e760e01b81526001600160a01b0384166004820152602401610f05565b6001600160a01b03821660009081526010602052604090205460ff1615611f305760405163d33f19e760e01b81526001600160a01b0383166004820152602401610f05565b60145460ff1615611ff457601654811115611f6c57601654604051632fd5550560e01b8152610f05918391600401918252602082015260400190565b6000601554118015611fa257506015546001600160a01b0384166000908152601260205260409020544291611fa09161389b565b115b15611ff4576015546001600160a01b0384166000908152601260205260409020544291611fce9161389b565b611fd891906139a1565b6040516398f263f160e01b8152600401610f0591815260200190565b50506001600160a01b03166000908152601260205260409020429055565b6001600160a01b03831661203c57604051634b637e8f60e11b815260006004820152602401610f05565b6001600160a01b0382166120665760405163ec442f0560e01b815260006004820152602401610f05565b61138f838383612660565b600061207d8484611d4c565b905060001981101561163057818110156120c357604051637dc7a0d960e11b81526001600160a01b03841660048201526024810182905260448101839052606401610f05565b6116308484848403600061258b565b60006120fe6120e083612381565b6001600160a01b0385166000908152600a60205260409020906123d0565b6001600160d01b03169392505050565b600c546001600160a01b03163314610ea65760405163118cdaa760e01b8152336004820152602401610f05565b612143612741565b6005805460ff191690557f5db9ee0a495bf2e6ff9c91a7834c1ba4fdd244a5e8aa4e537bd38aeae4b073aa335b6040516001600160a01b03909116815260200160405180910390a1565b6001600160a01b0382166121b75760405163ec442f0560e01b815260006004820152602401610f05565b61106160008383612660565b6001600160a01b0382166121ed57604051634b637e8f60e11b815260006004820152602401610f05565b61106182600083612660565b600061185c43612764565b6001600160a01b0382811660008181526009602052604080822080548686166001600160a01b0319821681179092559151919094169392849290917f3134e8a2e6d97e929a7e54011ea5485d7d196dd5f0ba4d4ef95803e8e3fc257f9190a461138f81836122718661279b565b6127b9565b6001600160a01b0381166000908152600a6020526040812054610c5290612925565b600c80546001600160a01b038381166001600160a01b0319831681179093556040519116919082907f8be0079c531659141344cd1fd0a4f28419497f9722a3daafe3b4186f6b6457e090600090a35050565b6122f2612956565b6005805460ff191660011790557f62e78cea01bee320cd4e420270b5ea74000d11b0c9f74754ebdbfc544b05a2586121703390565b606061185c7f0000000000000000000000000000000000000000000000000000000000000000600661297a565b606061185c7f0000000000000000000000000000000000000000000000000000000000000000600761297a565b60008061238c611852565b90508065ffffffffffff1683106123c757604051637669fc0f60e11b81526004810184905265ffffffffffff82166024820152604401610f05565b610df883612764565b81546000908181600581111561242f5760006123eb84612a25565b6123f590856139a1565b60008881526020902090915081015465ffffffffffff908116908716101561241f5780915061242d565b61242a81600161389b565b92505b505b600061243d87878585612b7e565b9050801561247857612462876124546001846139a1565b600091825260209091200190565b54600160301b90046001600160d01b031661247b565b60005b979650505050505050565b6001600160a01b0381166000908152600a6020526040812061184390612be0565b6000610c526124b4612c19565b8360405161190160f01b8152600281019290925260228201526042902090565b6000806000806124e688888888612d44565b9250925092506124f68282612e13565b50909695505050505050565b6001600160a01b038216600090815260086020526040902080546001810190915581811461138f576040516301d4b62360e61b81526001600160a01b038416600482015260248101829052604401610f05565b60408051808201909152600080825260208201526001600160a01b0383166000908152600a60205260409020610df89083612ecc565b6001600160a01b0384166125b55760405163e602df0560e01b815260006004820152602401610f05565b6001600160a01b0383166125df57604051634a1406b160e11b815260006004820152602401610f05565b6001600160a01b038085166000908152600160209081526040808320938716835292905220829055801561163057826001600160a01b0316846001600160a01b03167f8c5be1e5ebec7d5bd14f71427d1e84f3dd0314c0f7b2291e5b200ac8c7c3b9258460405161265291815260200190565b60405180910390a350505050565b60055460ff16156126845760405163ab35696f60e01b815260040160405180910390fd5b6001600160a01b038316158015906126b457506001600160a01b03831660009081526010602052604090205460ff165b156126dd5760405163d33f19e760e01b81526001600160a01b0384166004820152602401610f05565b6001600160a01b0382161580159061270d57506001600160a01b03821660009081526010602052604090205460ff165b156127365760405163d33f19e760e01b81526001600160a01b0383166004820152602401610f05565b61138f838383612f3c565b60055460ff16610ea657604051638dfc202b60e01b815260040160405180910390fd5b600065ffffffffffff821115612797576040516306dfcc6560e41b81526030600482015260248101839052604401610f05565b5090565b6001600160a01b038116600090815260208190526040812054610c52565b816001600160a01b0316836001600160a01b0316141580156127db5750600081115b1561138f576001600160a01b03831615612883576001600160a01b0383166000908152600a60205260408120819061281e90611e3c61281986612fa3565b612fd7565b6001600160d01b031691506001600160d01b03169150846001600160a01b03167fdec2bacdd2f05b59de34da9b523dff8be42e5e38e818c82fdb0bae774387a7248383604051612878929190918252602082015260400190565b60405180910390a250505b6001600160a01b0382161561138f576001600160a01b0382166000908152600a6020526040812081906128bc90611e3061281986612fa3565b6001600160d01b031691506001600160d01b03169150836001600160a01b03167fdec2bacdd2f05b59de34da9b523dff8be42e5e38e818c82fdb0bae774387a7248383604051612916929190918252602082015260400190565b60405180910390a25050505050565b600063ffffffff821115612797576040516306dfcc6560e41b81526020600482015260248101839052604401610f05565b60055460ff1615610ea65760405163d93c066560e01b815260040160405180910390fd5b606060ff83146129945761298d83613010565b9050610c52565b8180546129a0906137fc565b80601f01602080910402602001604051908101604052809291908181526020018280546129cc906137fc565b8015612a195780601f106129ee57610100808354040283529160200191612a19565b820191906000526020600020905b8154815290600101906020018083116129fc57829003601f168201915b50505050509050610c52565b600060018211612a33575090565b816001600160801b8210612a4c5760809190911c9060401b5b680100000000000000008210612a675760409190911c9060201b5b6401000000008210612a7e5760209190911c9060101b5b620100008210612a935760109190911c9060081b5b6101008210612aa75760089190911c9060041b5b60108210612aba5760049190911c9060021b5b60048210612ac65760011b5b600302600190811c90818581612ade57612ade613863565b048201901c90506001818581612af657612af6613863565b048201901c90506001818581612b0e57612b0e613863565b048201901c90506001818581612b2657612b26613863565b048201901c90506001818581612b3e57612b3e613863565b048201901c90506001818581612b5657612b56613863565b048201901c9050612b75818581612b6f57612b6f613863565b04821190565b90039392505050565b60005b81831015612bd8576000612b95848461304f565b60008781526020902090915065ffffffffffff86169082015465ffffffffffff161115612bc457809250612bd2565b612bcf81600161389b565b93505b50612b81565b509392505050565b80546000908015612c1057612bfa836124546001846139a1565b54600160301b90046001600160d01b0316610df8565b60009392505050565b6000306001600160a01b037f000000000000000000000000000000000000000000000000000000000000000016148015612c7257507f000000000000000000000000000000000000000000000000000000000000000046145b15612c9c57507f000000000000000000000000000000000000000000000000000000000000000090565b61185c604080517f8b73c3c69bb8fe3d512ecc4cf759cc79239f7b179b0ffacaa9a75d522b39400f60208201527f0000000000000000000000000000000000000000000000000000000000000000918101919091527f000000000000000000000000000000000000000000000000000000000000000060608201524660808201523060a082015260009060c00160405160208183030381529060405280519060200120905090565b600080807f7fffffffffffffffffffffffffffffff5d576e7357a4501ddfe92f46681b20a0841115612d7f5750600091506003905082612e09565b604080516000808252602082018084528a905260ff891692820192909252606081018790526080810186905260019060a0016020604051602081039080840390855afa158015612dd3573d6000803e3d6000fd5b5050604051601f1901519150506001600160a01b038116612dff57506000925060019150829050612e09565b9250600091508190505b9450945094915050565b6000826003811115612e2757612e27613a2e565b03612e30575050565b6001826003811115612e4457612e44613a2e565b03612e625760405163f645eedf60e01b815260040160405180910390fd5b6002826003811115612e7657612e76613a2e565b03612e975760405163fce698f760e01b815260048101829052602401610f05565b6003826003811115612eab57612eab613a2e565b03611061576040516335e2f38360e21b815260048101829052602401610f05565b6040805180820190915260008082526020820152826000018263ffffffff1681548110612efb57612efb6139d1565b60009182526020918290206040805180820190915291015465ffffffffffff81168252600160301b90046001600160d01b0316918101919091529392505050565b612f4783838361306a565b6001600160a01b038316612f98576000612f6060025490565b90506001600160d01b0380821115612f9557604051630e58ae9360e11b81526004810183905260248101829052604401610f05565b50505b61138f83838361307d565b60006001600160d01b03821115612797576040516306dfcc6560e41b815260d0600482015260248101839052604401610f05565b600080613003612fe5611852565b612ffb612ff188612be0565b868863ffffffff16565b8791906130f3565b915091505b935093915050565b6060600061301d83613101565b604080516020808252818301909252919250600091906020820181803683375050509182525060208101929092525090565b600061305e6002848418613879565b610df89084841661389b565b613072612956565b61138f838383613129565b6001600160a01b03831661309f5761309c600b611e3061281984612fa3565b50505b6001600160a01b0382166130c1576130be600b611e3c61281984612fa3565b50505b6001600160a01b0383811660009081526009602052604080822054858416835291205461138f929182169116836127b9565b600080613003858585613253565b600060ff8216601f811115610c5257604051632cd44ac360e21b815260040160405180910390fd5b6001600160a01b038316613154578060026000828254613149919061389b565b909155506131c69050565b6001600160a01b038316600090815260208190526040902054818110156131a75760405163391434e360e21b81526001600160a01b03851660048201526024810182905260448101839052606401610f05565b6001600160a01b03841660009081526020819052604090209082900390555b6001600160a01b0382166131e257600280548290039055613201565b6001600160a01b03821660009081526020819052604090208054820190555b816001600160a01b0316836001600160a01b03167fddf252ad1be2c89b69c2b068fc378daa952ba7f163c4a11628f55a4df523b3ef8360405161324691815260200190565b60405180910390a3505050565b82546000908190801561334c576000613271876124546001856139a1565b805490915065ffffffffffff80821691600160301b90046001600160d01b03169088168211156132b457604051632520601d60e01b815260040160405180910390fd5b8765ffffffffffff168265ffffffffffff16036132ed57825465ffffffffffff16600160301b6001600160d01b0389160217835561333e565b6040805180820190915265ffffffffffff808a1682526001600160d01b03808a1660208085019182528d54600181018f5560008f81529190912094519151909216600160301b029216919091179101555b945085935061300892505050565b50506040805180820190915265ffffffffffff80851682526001600160d01b0380851660208085019182528854600181018a5560008a815291822095519251909316600160301b029190931617920191909155905081613008565b6000815180845260005b818110156133cd576020818501810151868301820152016133b1565b506000602082860101526020601f19601f83011685010191505092915050565b602081526000610df860208301846133a7565b80356001600160a01b038116811461341757600080fd5b919050565b6000806040838503121561342f57600080fd5b61343883613400565b946020939093013593505050565b60006020828403121561345857600080fd5b610df882613400565b60008060006060848603121561347657600080fd5b61347f84613400565b925061348d60208501613400565b9150604084013590509250925092565b6000602082840312156134af57600080fd5b5035919050565b600080604083850312156134c957600080fd5b823591506134d960208401613400565b90509250929050565b6000806000606084860312156134f757600080fd5b61350084613400565b92506020840135915061351560408501613400565b90509250925092565b60008083601f84011261353057600080fd5b50813567ffffffffffffffff81111561354857600080fd5b6020830191508360208260051b850101111561356357600080fd5b9250929050565b6000806000806040858703121561358057600080fd5b843567ffffffffffffffff8082111561359857600080fd5b6135a48883890161351e565b909650945060208701359150808211156135bd57600080fd5b506135ca8782880161351e565b95989497509550505050565b801515811461106f57600080fd5b600080604083850312156135f757600080fd5b61360083613400565b91506020830135613610816135d6565b809150509250929050565b60008060006060848603121561363057600080fd5b833561363b816135d6565b95602085013595506040909401359392505050565b60ff60f81b881681526000602060e08184015261367060e084018a6133a7565b8381036040850152613682818a6133a7565b606085018990526001600160a01b038816608086015260a0850187905284810360c0860152855180825283870192509083019060005b818110156136d4578351835292840192918401916001016136b8565b50909c9b505050505050505050505050565b6000806000604084860312156136fb57600080fd5b833567ffffffffffffffff81111561371257600080fd5b61371e8682870161351e565b9094509250506020840135613732816135d6565b809150509250925092565b60008060008060008060c0878903121561375657600080fd5b61375f87613400565b95506020870135945060408701359350606087013560ff8116811461378357600080fd5b9598949750929560808101359460a0909101359350915050565b600080604083850312156137b057600080fd5b6137b983613400565b91506134d960208401613400565b600080604083850312156137da57600080fd5b6137e383613400565b9150602083013563ffffffff8116811461361057600080fd5b600181811c9082168061381057607f821691505b60208210810361383057634e487b7160e01b600052602260045260246000fd5b50919050565b634e487b7160e01b600052601160045260246000fd5b8082028115828204841417610c5257610c52613836565b634e487b7160e01b600052601260045260246000fd5b60008261389657634e487b7160e01b600052601260045260246000fd5b500490565b80820180821115610c5257610c52613836565b600181815b808511156138e95781600019048211156138cf576138cf613836565b808516156138dc57918102915b93841c93908002906138b3565b509250929050565b60008261390057506001610c52565b8161390d57506000610c52565b8160018114613923576002811461392d57613949565b6001915050610c52565b60ff84111561393e5761393e613836565b50506001821b610c52565b5060208310610133831016604e8410600b841016171561396c575081810a610c52565b61397683836138ae565b806000190482111561398a5761398a613836565b029392505050565b6000610df860ff8416836138f1565b81810381811115610c5257610c52613836565b6000602082840312156139c657600080fd5b8151610df8816135d6565b634e487b7160e01b600052603260045260246000fd5b6001600160d01b03818116838216019080821115613a0757613a07613836565b5092915050565b6001600160d01b03828116828216039080821115613a0757613a07613836565b634e487b7160e01b600052602160045260246000fdfea26469706673582212202f5995c47152739e59a2b3101efc6509806b2ceadff4b01a397fc2002ee92a9e64736f6c63430008140033dec2bacdd2f05b59de34da9b523dff8be42e5e38e818c82fdb0bae774387a724",
  "linkReferences": {},
  "deployedLinkReferences": {}
}